:100000000C9454010C9471010C948C010C947101AA
:100010000C9471010C9471010C9471010C94710198
:100020000C9471010C9471010C9477150C9471016E
:100030000C9471010C9471010C9471010C94710178
:100040000C9471010C9471010C9471010C94710168
:100050000C9471013A003B003C003D003E003F0023
:100060000000400041004200430044004500000001
:10007000680029001E001F0020002100220023002C
:1000800024002500260027002D002E0031004C0002
:100090002B0014001A0008001500170000001C00B7
:1000A00018000C00120013002F0030002A00390045
:1000B00004001600070009000A0000000B000D00F4
:1000C0000E000F003300340000002800E1001D0086
:1000D0001B000600190005000000050011001000BB
:1000E000360037003800E5000153E0000000E20070
:1000F0002C000000E3000000000001510000E600B9
:1001000000000000E4000000010001000100010007
:1001100001000100000001000100010001000100D8
:100120000100000001002900010001000100005C45
:1001300001000100010001000100010001000100B7
:1001400031004C002B000100010001000100010002
:100150000000010001005200010001000100010047
:100160002A00390001000100010001000100000027
:100170000100500051004F00010001000000280064
:10018000E100010001000100010001000000010088
:1001900001000100010001000100E5000100E00094
:1001A0000000E2002C000000E3000000000001005D
:1001B0000000E60000000000E400000009023B002F
:1001C000020100A0FA090400000103010100092155
:1001D0000101000122400007058103080001090414
:1001E0000100010300000009210101000122320089
:1001F0000705830308000112011001000000084FE9
:100200001B01000100010200010C0350006F00708F
:100210000070007900000018034A00610063006B61
:100220000020004D0065007200680061007200004F
:10023000000403090405010980A101850319012AAD
:10024000B700150126B700950175108100C0050C97
:100250000901A101850419012AA002150126A002A5
:10026000950175108100C005010906A10105071956
:10027000E029E715002501950875018102950175B2
:100280000881030507190029FF150026FF009506C0
:100290007508810005081901290595057501910268
:1002A000950175039103C00011241FBECFE5D8E06E
:1002B000DEBFCDBF10E0A0E6B0E0E2EAF2E302C0AC
:1002C00005900D92A83EB107D9F722E0A8EEB0E064
:1002D00001C01D92A13AB207E1F70E944B120C94A3
:1002E00043190C940000A82FB92F80E090E041E062
:1002F00050EA609530E009C02D9182279795879547
:1003000010F084279527305EC8F36F5FA8F3089537
:10031000EADF8D939D930895CF93CFB7CF93DF936B
:10032000C395839BE9F7839B10C0839B0EC0839B7F
:100330000CC0839B0AC0839B08C0839B06C0C091EE
:100340007802C395C09378028EC06F93C0917702F4
:10035000DD27C158DD4F2F9365E5839B03C02F91A7
:100360006F91E1CF0F931F934F9320E040E15F9394
:1003700000B30C7003FB27F93F9350E03BE039C01A
:100380001C7040642F77012F5F5F1EC0406810B360
:100390001C702F7752501FC0406400B32F770C7031
:1003A000D1F15F5F00C023C0406210B32F771C7093
:1003B00091F15F5F00C025C00C701027515012F4FE
:1003C0005D5F0000115027952C3F10B3C8F61C70DC
:1003D0000127015027952C3FC8F64227499300B3C7
:1003E0000C7010274F73115027952C3FA8F6469597
:1003F000469510B31C7079F00127015027952C3FCA
:1004000098F66B5A60F3315000B3B0F600C010E8B4
:100410001ABF00271CC03B503195C31BD04010E8C9
:100420001ABF0881033C21F10B3411F120917402B1
:100430001981110F1213EDCF4A81441F093679F14A
:100440000D3211F0013E29F74F7009F0042F00938F
:100450007D023F915F914F911F910F912F916F916D
:10046000CAB7C7FD5DCFDF91CF91CFBFCF911895B0
:1004700020917D02222369F310917B02112309F060
:1004800049C034300AF448C030937B02209376028E
:10049000109177023BE0311B309377023DC0009111
:1004A0007B020130BCF50AE54F7049F430916F00D2
:1004B00034FD33C000936F00C1E5D2E032C0433059
:1004C00059F0443091F030915C0234FD26C0009325
:1004D0005C02CDE5D2E025C03091950234FD1DC00F
:1004E00000939502C6E9D2E01CC03091680234FD49
:1004F00014C000936802C9E6D2E013C0052710E0DB
:1005000000C0000002BB1AC0052710E0221F1DC05A
:1005100010E021C04AE502C032ED432FC4E1D0E033
:1005200032E011B31C60939A02B311BB5CE020E887
:1005300065E320FF052702BB279517951C3FF0F6C2
:100540006695B8F7B1F720FF052702BB27951795E9
:100550001C3FD0F62795179517FF052700001C3F75
:1005600002BBB0F629913A9519F7037F10917C02EE
:10057000110FC651D04002BB11F01093740210E865
:100580001ABF086011B3137F402F437F54E05A9580
:10059000F1F702BB11BB42BB5CCF81E0089581E063
:1005A00008950E94CF02089508950E94D4020895EC
:1005B000A5E0B0E0EEEDF2E00C94CD1849835A834B
:1005C0003091EB0089819A81311119C0662399F02D
:1005D000222389F00E941B09182F682F89819A8194
:1005E0000E94F70869817A81812F0E94D00F259699
:1005F000E3E00C94E9180E940909182FF3CF0E9438
:100600001B0969817A81F1CFFC01262F408151813C
:100610006281738184810E94D802089581E00895E7
:10062000CF93DF93EC0160E00E940403BE010E94BF
:10063000D502DF91CF9108950E940C1108950E9478
:100640001011089508950E9446070E9422032FEF7B
:1006500084E39CE0215080409040E1F700C000001E
:1006600008950E9423030E949B1508950E9423036E
:100670000E94AE1508950F931F93CF93DF93EC0163
:100680008B010E94D102811106C080E0DF91CF91E1
:100690001F910F910895B801CE010E942314882361
:1006A000A1F3B801CE010E945812882371F3B8015A
:1006B000CE010E949513882341F3F801828188239B
:1006C00061F0CB35FDE5DF0701F158F4C115ECE52C
:1006D000DE0791F0CF3DDC4591F0C8010E94CD02CC
:1006E000D5CFCD358DE5D80769F090F0C83ADD4516
:1006F000A1F70E943603C9CF0E943103C6CF0E94E2
:100700001F0EF7CF0E94590DE8CF0E94630DE5CF71
:100710000E94670DE2CFCF93DF93EC0161E00E946E
:100720000403BE010E943B03DF91CF9108950E9414
:100730001A150E94B40308950E94B8030E941F1561
:10074000089508950E94A103089581E008950E94EC
:10075000A50308950895CF93C82F0E94A2038C2F5C
:100760000E94A703CF91089580E00E94AB030895F3
:100770000E947F140E94AB0308950E947F14909101
:10078000EA00981721F08093EA000E94AB030895D5
:10079000ABE0B0E0EEECF3E00C94CE184F8358875A
:1007A00069877A878B8761110E948E0C1E821D8259
:1007B00085E0FE013796DE01119601900D928A9533
:1007C000E1F78091340282FF0CC00E94510C882313
:1007D00019F082E00E94280D0E94380C81110E94BD
:1007E000BC0C8C819D81892B61F449815A816B817C
:1007F0007C818D819E810E948F0B2B96E2E00C9470
:10080000EA1889819A8189238F3F79F3CE01019675
:100810000E940E038111E9CFF0CFFC01808191810C
:100820000E9455090895CF93C82F8823B9F08CEF03
:100830008C0F813AA8F46C2F809160009091610038
:100840000E94D514882329F08C2F0E94260C0E9428
:10085000CA0C8C2F0E941E0C0E94CA0CCF910895C6
:1008600080E28C0F883048F4C77081E001C0880FA7
:10087000CA95EAF70E94710CEFCFEBE5EC0FE3307D
:1008800040F4F0E0E256FF4F808190E00E94971420
:10089000E5CFC85AC73110F7EC2FF0E0EE0FFF1F7D
:1008A000E059FF4F808191810E94AD14D7CF8823FA
:1008B00039F19CEF980F913A28F40E94260C0E947F
:1008C000CA0C089590E2980F983050F4877091E028
:1008D00001C0990F8A95EAF7892F0E94770CEFCF14
:1008E0009BE5980F933028F490E080E00E949714E5
:1008F0000895885A873120F490E080E00E94AD147A
:1009000008951F93CF93DF93182FEB010E941304D8
:10091000209739F4812F0E945704DF91CF911F91C6
:1009200008958FE99FE00197F1F700C0000021973B
:10093000EFCF70E060E0893311F460E570E00E9471
:1009400081040895882321F00E94710C0E94CA0C32
:100950000895882321F00E94770C0E94CA0C089504
:10096000B0E0A0E0E6EBF4E00C94C7186C01D62FE1
:10097000C72FFC010281F580F2949FE0F9220E94CA
:10098000670CE82E8823B9F0E02E0023A1F08C2F0D
:10099000807F803421F080E28D0F8830D0F080910C
:1009A000340282FF16C082E00E94280D0E94670C6C
:1009B00091E0E82EE926BC2EB2948FE0B822FBE04D
:1009C000FB1508F468C0EB2DF0E0EB5BF64E0C94E1
:1009D000B818E12CF0CF1C2F1F70C07F11F01295BA
:1009E000107F002399F0112359F080E28D0F883099
:1009F00010F0D11107C0812F0E94710C0E94CA0C07
:100A00008D2F41C0812F0E94810CF8CF8D2F0E9425
:100A10005704112309F43FC080E28D0F883010F095
:100A2000D11104C0812F0E94770C03C0812F0E9436
:100A3000870C0E94CA0C2FC01C2F1F70C07FC032B1
:100A400011F01295107FDD2381F0D13009F482C0BE
:100A5000002309F48BC0FF2009F45BC0F6018581F7
:100A600080FFCECF8F70858354C08091340282FD89
:100A700033C0002359F0112329F0812F0E94710CFB
:100A80000E94CA0C80E00E94130405C080E00E940E
:100A900057041111C7CFEB2DE850FF0B349720F40A
:100AA0000E947F140E94AB03EE2089F00E944D0C3F
:100AB00080FD0DC0F60112820E94470C0E94FF07C4
:100AC000C6010E940A070E94470C0E942108CDB768
:100AD000DEB7E9E00C94E3180023E9F0F11006C05A
:100AE0000E94910C812B0E94A204D5CF21E0F2122A
:100AF00006C00E94910C812B0E94A50CCCCF35E042
:100B0000F312EECF0E94BC0C0E94350C812B0E9488
:100B1000980C812FE8CFF11003C00E94BC0C11C0CB
:100B200081E0F81212C00E946E0C812309F4B3CF49
:100B30000E94BC0C0E94350C912F909589230E9435
:100B4000980C812F0E94A904A6CF95E0F91609F40C
:100B5000A2CFE3CF002329F0E5E0EF1508F49BCF07
:100B6000D8CFF4E0FF1508F496CFEBCFFF2049F380
:100B7000D93349F4FFEF27EE33E0F1502040304005
:100B8000E1F700C000008D2F0E94570484CF8C2F06
:100B900086958695837069F0813009F07CCF8D2F22
:100BA0009C2F9370011102C090E080E00E94AD1470
:100BB00072CF8D2F9C2F9370011102C090E080E0C6
:100BC0000E94971468CF8C2F837009F041C00111E7
:100BD00062CF4D2F429546954770440F440F0D2F1D
:100BE0000F7010E030E020E0042E04C0000F111F51
:100BF000221F331F0A94D2F760E070E0CB01D4FFCC
:100C00000FC06FE070E080E090E004C0660F771FD7
:100C1000881F991F4A95D2F7609570958095909599
:100C2000C695C695C370602B712B822B932BC23057
:100C300049F058F4C13019F00E94AA072CCF0E9445
:100C4000970729CF0E94BD0726CF0E94940723CF84
:100C50008695002311F08C2F8170882309F41BCF17
:100C60004D2F429546954770440F440F0D2F0F703E
:100C700010E030E020E0042E04C0000F111F221FFE
:100C8000331F0A94D2F760E070E0CB01D4FF0FC0AD
:100C90006FE070E080E090E004C0660F771F881F6F
:100CA000991F4A95D2F76095709580959095C69555
:100CB000C695C370602B712B822B932BC23049F0E9
:100CC00058F4C13019F00E947A08E5CE0E946708F6
:100CD000E2CE0E948D08DFCE0E94D607DCCECF7018
:100CE000002329F08C2F0E94FF078D2FFCCE8D2F23
:100CF0000E94A9048C2F0E942108CDCED23F51F131
:100D000060F4D03FB9F0D13F81F0002309F45AC01C
:100D1000F11076CE8C2F8F7121C0D33F11F1D43FCB
:100D2000A1F78091340282FD26C08C2F8F710023A1
:100D300011F314C0002349F084E08F1508F4ABCE02
:100D40008C2F8F710E944508A6CE95E09F1508F460
:100D5000A2CEF6CF8C2F8F710111CDCF0E94FF074D
:100D60009ACE002329F08C2F8F710E94E90793CE31
:100D70000E94E30790CE0023C1F00E944D0C843006
:100D800041F40E941E0D8C2F8F710E942108E12CCE
:100D900082CEE4E0EF15D8F3CF718C2F0E94FF07CD
:100DA00063E08C2F0E94000DF2CFF4E0FF1530F4C9
:100DB0000E941E0D64E08C2F8F71F4CF81E00E94A1
:100DC000280DE5CFFF2059F0D93309F0DCCE2FEF05
:100DD00037EE83E0215030408040E1F7D2CE8C2FB7
:100DE0008F7189CF0F931F93CF93DF93EC016881AD
:100DF00079818A810E9460098C010E94A0080E946A
:100E00009307B801CE010E94B004DF91CF911F91EA
:100E10000F910895CF93DF93EC018B819C81892BF7
:100E200029F08881998189238F3F51F4DF91CF91F7
:100E30000895CE010E94F206CE010E941003F6CF63
:100E4000CE010E948B038111F4CF0E94670C88238E
:100E500069F38A81882351F38091340282FFE6CFBF
:100E600082E00E94280DE2CF90E080E00E9497147B
:100E700090E080E00E94AD140E948E0C0E94CA0C8B
:100E800008950E942E0C0E94340708950E947E0C43
:100E90000E944107089592959F70963091F058F402
:100EA000925F9F70923058F4803F19F030F4883E82
:100EB00030F481E008959A5FF4CF843FD1F380E06D
:100EC0000895883EB0F3813FD1F7F3CFFC018081D4
:100ED00091810E9455090E944B070895A5E0B0E05A
:100EE000E4E7F7E00C94CE182596E2E00C94EA18BB
:100EF000A6E0B0E0EEE7F7E00C94CE182696E2E02C
:100F00000C94EA1808950E94820708950E948307AE
:100F100060932C0170932D0180932E0190932F01EB
:100F20000E943407089508950E94860708950F933C
:100F30001F9300912C0110912D0120912E013091D1
:100F40002F01602B712B822B932B0E9486071F9100
:100F50000F9108950F931F9300912C0110912D0173
:100F600020912E0130912F0160237123822393233E
:100F70000E9486071F910F9108950F931F93009170
:100F80002C0110912D0120912E0130912F0160270D
:100F90007127822793270E9486071F910F9108953A
:100FA0000E94820708950E94D00708950E94D307E7
:100FB000609328017093290180932A0190932B015B
:100FC0000E943407089560E070E0CB010E94D607CC
:100FD00008950F931F9341E050E060E070E08A01B4
:100FE0009B0104C0000F111F221F331F8A95D2F7E7
:100FF000C901B8010E94D6071F910F9108950F9360
:101000001F9341E050E060E070E004C0440F551FC2
:10101000661F771F8A95D2F7809128019091290148
:10102000A0912A01B0912B018A019B01082B192B59
:101030002A2B3B2BC901B8010E94D6071F910F91A3
:1010400008950F931F9341E050E060E070E004C00A
:10105000440F551F661F771F8A95D2F7CB01BA013F
:1010600060957095809590950091280110912901C7
:1010700020912A0130912B01602371238223932335
:101080000E94D6071F910F9108950F931F9341E07F
:1010900050E060E070E004C0440F551F661F771FEA
:1010A0008A95D2F78091280190912901A0912A0177
:1010B000B0912B018A019B01082719272A273B277A
:1010C000C901B8010E94D6071F910F9108950F938F
:1010D0001F93009128011091290120912A0130913C
:1010E0002B01602B712B822B932B0E94D6071F9113
:1010F0000F9108950F931F930091280110912901DA
:1011000020912A0130912B016023712382239323A4
:101110000E94D6071F910F9108950F931F9300917E
:1011200028011091290120912A0130912B0160277B
:101130007127822793270E94D6071F910F91089548
:101140000895262F277091E001C0990F2A95EAF79C
:1011500023E0769567952A95E1F725E0269FF00133
:10116000279FF00D1124E40FF51F50E040E0682F99
:1011700070E08191DF0111979B01042E02C036952A
:1011800027950A94E2F721702195282729232827FB
:101190002C934F5F5F4F4530510559F70895A82FA5
:1011A000A77023E0969587952A95E1F725E0289F7B
:1011B000F001299FF00D1124E60FF71F50E040E0E9
:1011C00080E0219130E00A2E02C0369527950A94DE
:1011D000E2F721703327042E01C0220F0A94EAF7A8
:1011E000822B4F5F5F4F4530510559F70895262FE9
:1011F000963070F48F3060F4682F70E08FE0989F25
:10120000600D711D11244CEE50E0822F0E94A10848
:101210000895292F963068F48F3058F490E06CEEE2
:1012200070E03FE0239F800D911D11240E94CF08A4
:10123000089580E00895B0E0A0E0E1E2F9E00C94C8
:10124000C7188C01C0902801D0902901E0902A0194
:10125000F0902B0180912C0190912D01A0912E01F5
:10126000B0912F01C82AD92AEA2AFB2ACFE1D0E07F
:10127000BC2ED701C6010C2E04C0B695A795979534
:1012800087950A94D2F780FD09C0219788F7B12C81
:101290008B2DCDB7DEB7E9E00C94E318B8018C2FA5
:1012A0000E94EB0F019789F3F3CFCF93DF93EC010B
:1012B0000E941B09BE010E94EB0FDF91CF910895A0
:1012C0001F93CF93DF93EB019091EB00992339F0BB
:1012D000CB010E945509DF91CF911F91089588237A
:1012E00069F0CB010E941B09182F682FCE010E94C4
:1012F000F708BE01812F0E94EB0FEDCFCB010E94BA
:101300000909182FF6CF1F93CF93DF93C0913001B7
:1013100016E0809131018C1304C0DF91CF911F91B1
:101320000895D0E01C9FF0011D9FF00D1124EE5C8C
:10133000FE4F4081518162817381848195810E9439
:1013400078072196C770E5CF409162015091630103
:1013500060916401709165018091660190916701CF
:101360000E94780708951F93CF93DF9380916701C0
:10137000807F09F049C080916401882309F444C04A
:1013800080913001C09131016091620170916301DF
:10139000A0916501B0916601D62FD72316E0C8173A
:1013A00099F190E0109711F0DF3F19F401968770E2
:1013B000F6CF189F9001199F300D1124F901EE5CB2
:1013C000FE4F41814713F2CF40814613EFCF428158
:1013D0004111ECCF438154814A1B5B0B483C5105C2
:1013E00028F7809167018F70806180936701F90110
:1013F000E95CFE4F80818F708061808382E691E09E
:101400000E940A070E948309DF91CF911F910895DE
:10141000A1E1B0E0EEE0FAE00C94C6188C0185E0A2
:10142000F801DE011D9601900D928A95E1F7F80111
:10143000E28082E6C82E81E0D82E6091650170912D
:1014400066016115710509F44EC190916201209108
:101450006301892F82238F3F09F445C14081518167
:10146000A380B480F0906401F501E61BF70BFF2028
:1014700009F4EAC080916701382F307FE83CF1051C
:1014800008F0A3C031116DC0FE2C251316C09413B3
:1014900014C0E11012C08F708061809367010E94B8
:1014A000A409C6010E940A0780916701F80185839B
:1014B0008F2D6196EAE00C94E218A114B10429F092
:1014C000842F85238F3F09F027C180E0F82FF1702A
:1014D000DF2E80FF3CC0809130012091310136E049
:1014E000821315C04D875E878D859E850E945509A4
:1014F000292F22952F702230F0F0243018F59F709C
:10150000F1F0F8019581907FD1F4D12C1EC090E0CC
:10151000389FF001399FF00D1124EE5CFE4F618180
:10152000651306C06081641303C06281E6120FC0B8
:1015300001968770D5CF9F7011F0882331F3805EBC
:10154000883018F3C8010E940A07FD2CB1CFEE20A5
:1015500009F4AECF80916701816080936701F12C1F
:10156000A7CF251306C0941304C0F801EE2009F498
:1015700087C0C8010E946607882319F1EE2009F18F
:1015800080916701803270F0209162013091630197
:1015900038872F831986BB86AA868C87CE0107964B
:1015A0000E940A0786E0F801A2E6B1E001900D92E0
:1015B0008A95E1F70E94B3090E94A409FF24F394DD
:1015C00077CFC8010E940A07F9CF311113C07A2DD5
:1015D000B98AA88A6E2D89890E946E0782E691E0F9
:1015E0000E940A0786E0F60111928A95E9F70E94A7
:1015F000A409B5CF25130FC094130DC0E1100BC083
:10160000F8018583C8010E940A0786E0F60111925D
:101610008A95E9F74DCFC8010E946607882389F2B1
:10162000EE2079F280916701803208F4BBCF2091DF
:101630006201309163013A8329831B82BD82AC82AF
:101640008E83CE010196ACCFE83CF10508F03EC098
:10165000FE2CEE2009F4B5CF25132AC0941328C020
:101660008091670180FD1BC0982F907FC1F0F80129
:101670008583903F31F0982F907F905F8F70892BFA
:101680008583C8010E940A0786E0F801A2E6B1E05E
:1016900001900D928A95E1F70E94A40909CF86E096
:1016A000F801A2E6B1E001900D928A95E1F700CF32
:1016B000C8010E946607811175CF80916701816022
:1016C00080936701C8010E940A07F2CE7A2DB98A79
:1016D000A88A6E2D89890E946E0786E0F601119214
:1016E0008A95E9F7D9CFEE2009F46BCFC8010E94A3
:1016F0006607F82E882309F464CF86E0F801A2E695
:10170000B1E001900D928A95E1F782E691E00E94A6
:101710000D040E94B309C0CF81E08E25D7CEACE086
:10172000B0E0E5E9FBE00C94CD184F83588769875A
:101730007A878B879C87CE0107960E94080A8823A8
:1017400069F08A859B85892B39F04F815885842FD4
:1017500085238F3F09F06BC016E05FC086E0FE0175
:101760003796DE01119601900D928A95E1F78A85F0
:101770009B85892B89F38F81988589238F3F61F31E
:101780002091310130E0C90101968770992740917D
:1017900030014817190671F40E9446071092310172
:1017A0001092300186E0E2E6F1E0DF011D928A95B9
:1017B000E9F7D2CF96E0929FD001939FB00D11240C
:1017C000AE5CBE4FFE01319601900D929A95E1F705
:1017D000809331010E948309BFCF819FC0011124F2
:1017E0008E5C9E4F0E94080A8823E9F0E091300148
:1017F0001E9FF0011124EE5CFE4F408151816281F9
:101800007381848195810E9478078091300190E0F6
:1018100001968770992780933001809130019091D3
:1018200031018913DACF2C96E3E00C94E91869852D
:101830007A858B859C850E9478078ECF682F809152
:101840006000909161000E940B150895682F8091AF
:101850006000909161000E940E15089580916000D3
:10186000909161000E941115089580916D01089575
:101870000E94501520916B0130916C01821B930BDB
:101880009C0181E02838334108F480E0089580917C
:101890006A01859585958595089580916A0187707F
:1018A00008950E9450152091680130916901821BB2
:1018B000930B8838934148F080916A0182FB882716
:1018C00080F991E089278170089580E0FCCF9091A4
:1018D0006A01977081E009F480E0089580917801B1
:1018E000089590917801892B8093780108958095CF
:1018F000909178019823909378010895109278013F
:10190000089590917701892B8093770108958095B0
:101910009091770198239093770108951092770121
:10192000089580916E01089508950E94940C089581
:1019300090916D01981721F080936D010E94950C94
:10194000089508950E94A10C0895CF93C82F809107
:10195000340282FF0FC080916E018C1759F00E94F3
:10196000501590936C0180936B01C0936E018C2F86
:101970000E94A20CCF91089580916E01882349F0B6
:1019800010926E0110926C0110926B0180E00E9427
:10199000A20C0895E0916000F091610080917801BF
:1019A0008083E0916000F0916100808190917701E7
:1019B000892B808380916E018823B9F00E94380CB6
:1019C00081110E94BC0CE0916000F0916100808167
:1019D00090916E01892B80838091600090916100CD
:1019E0000E94C31481110E94BC0C809160009091F0
:1019F00061000E948C14089508950E94FC0C0895C3
:101A00009091340292FF17C098E0899F90011124B1
:101A1000622B60936A010E94FF070E945015909309
:101A200069018093680180916A0185958595859506
:101A30000E94FD0C08950E94FF07089510926A010C
:101A4000109269011092680180E00E94FD0C0895D7
:101A500090916A018095892380936A01282F2770CD
:101A600091F4282F082E000C330B9217130659F00F
:101A70009091340292FF07C08595859585950E94C7
:101A800021080E941E0D08959091340292FB222796
:101A900020F9281769F080FB92F990933402809125
:101AA0003302909134020E94950D82E00E94280D2D
:101AB00008958091340282FB882780F991E089277C
:101AC0000E94440D089581E00E94440D089580E035
:101AD0000E94440D08956FEF7FEF90E080E00E9438
:101AE0002D19089590E080E00E940A1921E0883EB7
:101AF0009E4F09F020E0822F089582E090E00E943E
:101B00000219089583E090E00E9402190895CF938E
:101B100084E090E00E940219C82F82E290E00E94C7
:101B20000219982F8C2FCF910895CF93C92F682F2A
:101B300084E090E00E9410196C2F82E290E00E94F5
:101B40001019CF910895AB01BC018FE090E00E9485
:101B500021190895AB01BC0183E190E00E94211995
:101B6000089560E070E0CB010E94AA0D089560E046
:101B700070E0CB010E94A30D0E94B10D089568EEA4
:101B80007EEF90E080E00E942D1960E082E090E01E
:101B90000E94101960E083E090E00E9410191092FA
:101BA0002C0110922D0110922E0110922F0160E055
:101BB00084E090E00E94101964E082E290E00E94CC
:101BC000101960E085E090E00E94101960E086E066
:101BD00090E00E9410196FEF87E090E00E941019CA
:101BE00040E050E0BA0188E090E00E94211960E0F6
:101BF0008DE090E00E94101940E050E0BA0188E1C9
:101C000090E00E94211960E087E190E00E941019A5
:101C100040E050E0BA018CE190E00E94211970E0B0
:101C200060E080E290E00E942D1940E050E0BA01AF
:101C300088E190E00E9421190E94B70D08950E944A
:101C4000BF0D0895682F8EE090E00E94101908954E
:101C50000E945C156093890170938A0180938B01C7
:101C600090938C0160938501709386018093870126
:101C7000909388010895089508950E943C0E089558
:101C800008950E94400E08958AEC90E10E94751418
:101C90000E943B0E0E943D0E089581E008950E942F
:101CA0004D0E0895089508950E94520E0E94530EFD
:101CB00008950E94E6100E94AA0308950E94491503
:101CC0000E94B9110E94590E0E94410E0895AAE087
:101CD000B0E0EDE6FEE00C94C3180E94CF11A82EF0
:101CE00081110E94280E59E7852E51E0952E10E0B3
:101CF00000E0702E802F0E9413116C01F401E1901E
:101D0000F1904F01E816F90609F444C080918D0165
:101D100081FD0E941C11C7018C259D25B12CEE244C
:101D2000E394F12C9C012E213F21232B69F10E9489
:101D30004F0E8823B1F0BE827F82CE20DF2081E06B
:101D4000C114D10409F480E088870E945015816095
:101D5000782F9A8789874E815F8168858A850E945E
:101D6000C803000F111FF801E758FE4F80819181D1
:101D7000E826F926F182E08281E0A11001C080E02E
:101D80002A96EDE00C94DF18B394EE0CFF1CFFE0F4
:101D9000BF12C8CF0F5F1F4F0630110509F0A9CF42
:101DA0008FEF89838A831B820E9450158160782F70
:101DB0009D838C8349815A816B818D810E94C803E8
:101DC000DBCF0E94670E0E94BD030895CF93DF937F
:101DD0000E94F00FEC01811522E59207E8F58115CC
:101DE00031E5930708F0ACC0883E910510F5803EC0
:101DF000910570F5883A910570F4853A910508F0DF
:101E000078C08130910521F1009711F1049700F518
:101E1000D0E0C0E01DC08F3B9105D0F7C85AD0E09C
:101E2000CC0FDD1FCF55DF4F0990D881C02DD46472
:101E30000FC0811540E5940708F066C0C11580E425
:101E4000D80708F05EC0CE019A9581159F4100F732
:101E5000CE01DF91CF910895811536E5930718F5EE
:101E6000811545E5940708F083C0C11584E5D807BE
:101E700008F079C09C2F969596959E012370332784
:101E8000C115D34508F461C0C1E0D0E002C0CC0F59
:101E9000DD1F2A95E2F730E2939FC0011124C82B81
:101EA000D92BDA68D5CFC1158AE5D80778F4C115E2
:101EB00099E5D90708F066C0C11528E5D20708F4EE
:101EC000A7CFDC2FCC27C06FD06AC2CFCE019056EF
:101ED0008115904208F09CCF8D2F8F710E94871042
:101EE00090E0982F882788279F719C012C2BE9016F
:101EF00047C0C55AD0E0C153DF4FC881D0E0D0649D
:101F0000A7CFDF70D06AA4CFE4E096958795EA95D5
:101F1000E1F783702C2F26952695237040E2249FAD
:101F200090011124382B8C2F8370C1E0D0E002C0C7
:101F3000CC0FDD1F8A95E2F7C22BD32BDC6888CF4C
:101F4000D82FCC27C16FD06A83CFC1E0D0E002C0C8
:101F5000CC0FDD1F2A95E2F720E2929FC0011124E9
:101F6000C82BD92BEBCFDC2FCC27C46FD06A70CF16
:101F70000E948710C82FD0E0DC2FCC27CC27DF7140
:101F8000D06266CF8C2F8F700E94871034E0D69578
:101F9000C7953A95E1F7CF709C2FEC01D06958CFE7
:101FA000972F7630A8F46F3098F470E02FE0929F6E
:101FB000600D711D1124FB019AE5899FE00DF11D53
:101FC0001124EE0FFF1FEC5AFF4F85919491089555
:101FD00080E090E008950E94D00F0E94E60E0895E0
:101FE00082389105B1F1B0F48133910509F475C0DF
:101FF00048F48932910509F469C08A32910509F4DF
:1020000073C008958533910509F459C0893391054A
:1020100001F10895833E9105A9F138F4803E9105C0
:10202000F9F0823E910549F10895863E9105A9F1A6
:10203000873E9105C9F1843E910519F5209134023E
:1020400021FF1FC08091330284FD14C087EE90E011
:102050000895209133022370A1F080EE90E008955E
:102060002091330220FD47C03091340230FF09C077
:1020700024FF44C090E080E004C02091330222FDA0
:10208000F7CF08952091330222FD3BC030913402F6
:1020900030FDE3CF24FFF5CFEDCF2091330223FFB6
:1020A000F0CF24FDE7CFD2CF2091330223FD2CC007
:1020B0003091340231FFEECF84EE90E0089520910C
:1020C000330225FFDECF89E290E0089520913302AC
:1020D00025FFD7CF85E390E008952091330226FFB6
:1020E000D0CF8AE290E008952091330226FFC9CF35
:1020F00081E390E0089589E390E0089583EE90E015
:10210000089582EE90E0089586EE90E00895909113
:10211000330292FF06C0282F28712830F9F4877FF8
:10212000846093FF06C0282F28712831F1F4877E40
:1021300084612091340220FF06C0382F3871383076
:10214000D9F4877F816021FF06C0282F28712831AC
:10215000D1F4877E816194FD877E0895282F2471B4
:102160002430F9F68B7F8860DCCF282F247124314E
:1021700001F78B7E8861DDCF382F3171313019F74F
:102180008E7F8860E0CF282F2171213121F78E7E4C
:102190008861E1CF80E008950E946B0D08950E9450
:1021A000CF118FE39CE90197F1F700C000000E9476
:1021B000CF1180E00E94131181FF04C00E94CC1057
:1021C0000E949B1508950E94CF1008950E94720DE1
:1021D000811102C00E941F0E0E947D0D80938D010F
:1021E0000E94870D90933402809333020E94E31083
:1021F0000E94820D682F70E090E080E00E949407BA
:10220000609128017091290180912A0190912B0100
:102210000E94D307089508950E940B110895089510
:102220000E940F110895E82FF0E0EE0FFF1FEF5B03
:10223000FD4F808191810895089580EA8A95F1F794
:10224000089500C008950E941D110895E82FE29599
:10225000EF70F0E031A9282F2F7081E090E001C0ED
:10226000880F2A95EAF7982F9095932391AB92A91E
:10227000892B82AB0895CF93DF93C1EED0E0899193
:102280008F3F11F00E94261180E0C73ED807B9F7B2
:10229000C2EDD0E089918F3F11F00E94261180E0BD
:1022A000C13ED807B9F7DF91CF910895B0E0A0E023
:1022B000ECE5F1E10C94C8188C01E62EC62FD0E0B5
:1022C000FE01EF51FF4FF0808FEFF81609F449C07F
:1022D000EF2DE295EF70F0E021A93F2D3F7081E0F6
:1022E00090E001C0880F3A95EAF7922F982B91ABB6
:1022F00092A98095892382AB0E942111E2EDF0E042
:1023000041EE50E021E030E0D12CC12C61916F3FD3
:1023100069F1A62FA295AF70B0E0D0968C9190E0B5
:102320006F7002C0959587956A95E2F780FD1EC093
:10233000C901C82AD92A220F331F4E175F0731F768
:102340008F2D0E94261161E0C114D10409F460E0D0
:102350008E2D0E942311CC0FDD1FC00FD11FD982FB
:10236000C882CDB7DEB7E8E00C94E41890E080E0D6
:10237000E0CF0E943B118CE0E1E4F2E0DF01982F16
:102380001D929A95E9F7E5E3F2E0DF011D928A9547
:10239000E9F786E00E940B120E941C030895ACE04E
:1023A000B0E0E5EDF1E10C94CB188E010F5F1F4F0B
:1023B0008CE0F80111928A95E9F7F12C6F2DC80194
:1023C0000E945611F394F6E0FF12F8CF4CE050E073
:1023D000B80185E392E00E94F518FF24F39400977A
:1023E00009F4F12C892B41F08CE0F801A5E3B2E06F
:1023F00001900D928A95E1F72F2D46E061E472E09D
:1024000085E392E00E940C120E941F038F2D2C96F0
:10241000E5E00C94E7180895FF920F931F93CF9374
:10242000DF93F82E092F162FD72FC42F222349F020
:1024300081E0809390010E94501590938F018093CA
:102440008E01809190018823A1F080918E0190915E
:102450008F010E946815059760F0EF2DF02FA12FD6
:10246000BD2F90E080E0D0E08C179D073CF01092EB
:102470009001CDB7DEB7E5E00C94E71821913191DA
:102480002D933D930196F0CF0E94BE150E945E0EE3
:102490000E94CF1508950E9437150E94B7150E941B
:1024A000440E0E9444120E94DD150E94540EFBCF80
:1024B000CF93DF93EC01FB018281882309F433C1C0
:1024C000C430FDE5DF07C0F5CB3F9CE5D90730F40C
:1024D0009E0122503C4524313105B0F50E94870D04
:1024E0009093340280933302C1318CE5D80709F40C
:1024F000EEC008F069C0C930ECE5DE0709F4D5C0CC
:10250000C8F5C5308CE5D80709F4C7C000F5C3305D
:10251000ECE5DE0709F4B9C008F0BBC0C230DC4509
:1025200009F4ADC080913302909134020E94950D60
:102530000E94460780E008C0C236EDE5DE0771F272
:10254000C63AFDE5DF0751F2DF91CF910895809102
:1025500033028062C7309CE5D90709F493C08091AB
:1025600033028061C830DC4508F48CC080913302AE
:10257000806488C0809133028B7FCD30FCE5DF071B
:1025800009F480C098F4809133028E7FCB309CE5B3
:10259000D90709F477C0809133028C60CC30DC45D8
:1025A00008F470C0809133028D7F6CC0809133023B
:1025B0008F7ECF30FCE5DF0709F464C008F47BC0F0
:1025C000809133028F7D5EC0CE3F9CE5D90709F430
:1025D0007AC050F5C531FCE5DF0709F486C098F4F0
:1025E00080913302837FC3319CE5D90709F44AC047
:1025F00008F471C00E94460790913302892F97FB1F
:1026000087F980583FC0CC3FFCE5DF0709F449C09B
:1026100008F055C0809134028160CB3FDC4509F061
:1026200081CF809334027ECFC230EDE5DE0709F41E
:1026300068C0A8F4C1158DE5D80709F452C080918F
:1026400034028360C130DD4560F380913402982FFD
:10265000909591708E7F892B90FB81F9E2CFC236E5
:10266000EDE5DE0709F451C0C63AFDE5DF0709F4E0
:1026700053C0C330DD4509F055CF80E043C08091A1
:1026800033028160809333024DCF809133028260A8
:10269000F9CF809133028460F5CF80913302886056
:1026A000F1CF809134028260BCCF0E9446078091B6
:1026B00033028068E7CF80913302877FE3CF809138
:1026C00034028E7FAECF809134028D7FAACF80916D
:1026D00033028F7BD7CF0E944607809133028F77DA
:1026E000D1CF809134028C7F9CCF8091330282FBCA
:1026F000992790F921E0922790FB82F990FB83F9CA
:10270000C1CF81E00E94220E0DCF90913302892F1C
:102710008F7E94FF8061B6CF90913302892F8E7F98
:1027200090FF8160AFCF81E00FCFCF93DF93EB01BC
:1027300086319C4511F50E946E0C9A81992399F07F
:102740008A7A91E009F490E090939101811109C097
:1027500089E20E941E0C0E94CA0C80E0DF91CF919A
:10276000089585E3F6CF80919101811104C089E23B
:102770000E94260CF0CF85E3FBCF81E0EFCF0F93D3
:102780001F93CF93DF93C42FD22FFC018281882324
:10279000C9F0409394010E94501590939301809347
:1027A000920180E28C0F883040F4C77081E001C054
:1027B000880FCA95EAF70E94A204DF91CF911F917A
:1027C0000F91089510919401141332C080919201D9
:1027D000909193010E946815883C910548F5C0E2EC
:1027E000CD0F1D17B9F080E2810F883040F41770CB
:1027F00081E001C0880F1A95EAF70E94A904C83049
:1028000048F481E09D2F977001C0880F9A95EAF7F0
:102810000E94A204802F0E949904C83070F6D770DD
:1028200081E001C0880FDA95EAF70E94A904C5CFBC
:1028300080E28C0F883008F6C77081E001C0880FF5
:10284000CA95EAF7F2CF0F939C01CB01243F4CE5E8
:10285000340759F1A8F4293DFCE53F0701F12A3D71
:102860004CE53407D1F1283D3C4591F406E221EED8
:1028700041EE68ED7CE50E94BF1380E00F91089562
:10288000263FFCE53F07E9F0B0F0273F3C45F9F073
:10289000FC018281882339F110929401EFCF07E285
:1028A00025EE45EE69ED7CE5E6CF06E221EE40EE51
:1028B00064EF7CE5E0CF07E225EE44EE65EF7CE5D2
:1028C000DACF06E221EE42EE66EF7CE5D4CF07E2F6
:1028D00025EE46EE67EF7CE5CECF08E221E045EE3F
:1028E0006AED7CE5C8CF81E0C9CF9093E900809381
:1028F000E800089590939A01809399010895E091DA
:102900009901F0919A01309729F00190F081E02D22
:102910000995089580E00895E0919901F0919A0158
:10292000309721F00280F381E02D099508952091E0
:102930009701309198012817390771F09093980109
:1029400080939701E0919901F0919A01309721F0DD
:102950000680F781E02D0995089520919501309129
:1029600096012817390771F090939601809395018D
:10297000E0919901F0919A01309721F00084F1855E
:10298000E02D099508959C012E5F3F4FAC01485FF3
:102990005F4F80E02417350709F40895F9019191FC
:1029A0009F019923B9F38F5FF5CF662349F0FC01AE
:1029B000329608962191261729F0E817F907D1F7E2
:1029C00080E0089581E008959C01FC0132969FEF1C
:1029D00080E04191461751F09F3F19F4411101C029
:1029E000982F8F5F8630A9F79F3F09F40895290F2C
:1029F000311D97FD3A95F90162830895FC013296E5
:102A000008962191261303C0DF0111971C92E81745
:102A1000F907B9F708950E94E41408950E94FE147E
:102A20000895029626E0FC0111922A95E9F708958F
:102A3000089508950E9419150895089508950E9413
:102A400018150895CF930E941D150E94CF110E9462
:102A50001E15C0E08C2F0E941311892B31F4CF5F1B
:102A6000C630C1F780E0CF91089581E0FCCF84B7F4
:102A7000806884BF84B7806884BF089580919D0179
:102A800081110E94970308950E9446070E949C03AB
:102A900008958BE083BF8AEF8CBF82E089BF0895E1
:102AA0002FB7F89480914D0290914E02A0914F0261
:102AB000B09150022FBF08952FB7F89460914D0246
:102AC00070914E0280914F02909150022FBF089555
:102AD0009C014FB7F89480914D0290914E02A091C5
:102AE0004F02B09150024FBF821B930B0895789410
:102AF0001F921FB61F9211248F939F93AF93BF9382
:102B000080914D0290914E02A0914F02B0915002DF
:102B10000196A11DB11D80934D0290934E02A0938A
:102B20004F02B0935002BF91AF919F918F911F9030
:102B30001FBE1F90189588E198E00FB6F894A895ED
:102B400081BD0FBE91BDA895F894D8E0CEE528E3ED
:102B5000299320E0299314BEFFCF089588E198E0DF
:102B60000FB6F894A89581BD0FBE91BDFFCF0E940E
:102B7000501590939C0180939B0108950E949D188D
:102B80008B9A80E0815019F48B9878940895A895D9
:102B9000EFE9FFE03197F1F700C00000F3CF0E94AA
:102BA000BF160E947A142FEF80E792E021508040F8
:102BB0009040E1F700C000000895809178028823DA
:102BC00011F1109278020E94501590939C0180930D
:102BD0009B0180919D01882341F010929D010E94EC
:102BE000441580919D01811112C00E94AD17809102
:102BF0007E02882329F080915C0284FD0E94E10E10
:102C00000E946616089580919D01882301F10E941B
:102C10003E150E9422158823A9F3F89421B3939AB4
:102C2000822F8C6081BB92B33CE0932792BB4FE72D
:102C300088E391E0415080409040E1F700C00000FF
:102C400082B3832782BB21BB9398789408958091A7
:102C50009B0190919C010E946815069708F4C1CFD2
:102C600081E080939D010E943E15BBCF809132028E
:102C7000089508959091A301981307C02091A10190
:102C80003091A20126173707A9F08093A301709312
:102C9000A2016093A10180939E017093A0016093B3
:102CA0009F018091950284FF05C063E08EE991E069
:102CB0000E94A8170895BC0184E00E943A16089566
:102CC000BC0183E00E943A1608950895CF93DF93E4
:102CD000CAE0D0E080915C0284FF1AC08091AF010D
:102CE0009091B001981789F028E0829FC0011124CB
:102CF00068E08F549E4F0E94A3178091AF0190E02F
:102D000001968F7099278093AF01DF91CF9108953D
:102D10000E94AD178FE99FE00197F1F700C0000016
:102D20002197C1F6F2CFCF93DF93EC01A091B001D0
:102D3000B0E0CD0101968F7099272091AF0128173F
:102D400079F093E0AA0FBB1F9A95E1F7AF54BE4FFD
:102D500098E0FE0101900D929A95E1F78093B00101
:102D60000E94AD170E94661688E0FE01A7EAB1E056
:102D700001900D928A95E1F7DF91CF91089582E657
:102D800090E00895FC01808180768032F1F48181A9
:102D9000813061F484819581892BB9F487EA91E0CF
:102DA00090937A028093790288E00895823041F40A
:102DB00081E392E090937A028093790281E0089512
:102DC0008A3029F483818093310280E0089589302C
:102DD000E1F7828193818115924069F48481958124
:102DE000892B49F481E08093A60186819781909395
:102DF000A5018093A4018FEF0895FC018091A401A7
:102E00009091A501892B61F08091A601813041F458
:102E10009081909332021092A5011092A40108951E
:102E20008FEF08950895FC019381933059F130F4A8
:102E30009130C1F09230F1F080E00895913209F4C0
:102E400040C09232C9F784819581009709F44AC045
:102E5000019791F785E392E090937A02809379024B
:102E600082E3089587EF91E090937A02809379024C
:102E700082E108958CEB91E090937A02809379023D
:102E80008BE3089582818130A1F0882351F0823054
:102E900099F689E092E090937A02809379028CE02F
:102EA000089581E392E090937A028093790284E01E
:102EB000089587E192E090937A028093790288E105
:102EC00008958281882331F0813009F0B5CF87EEF3
:102ED00091E002C08EEC91E090937A0280937902A7
:102EE00089E0089587E692E090937A0280937902D0
:102EF00080E408951F93CF93DF93E82F792F162F47
:102F0000EA01888184FF1CC0298188E82827298359
:102F1000CE010296DC012E2F372F512F5E0FF901C3
:102F200021912D939F01452F4E1B1416C4F3612F41
:102F30000E9488011C5F1883DF91CF911F91089533
:102F40008AE58883E5CF4CE552E00E947A17089520
:102F500045E952E00E947A170895CF93DF9360917C
:102F60007B02635067FD12C080917702CCE0D0E015
:102F7000C81BD109C158DD4F80917602803108F01D
:102F800054C0CE010E94121710927B0280916F00F4
:102F900084FF3EC080916E008F3FD1F1C82F8930F1
:102FA00008F0C8E0982F9C1B90936E0090915102FE
:102FB00028E89227909351028823E9F080917902C2
:102FC00090917A022091750226FFAEC0FC012C2F51
:102FD000A2E5B2E034913D9331962150D9F79C019E
:102FE0002F5F3F4F8FEF8C0F820F932F911D909388
:102FF0007A02809379026C2F82E592E00E94880128
:10300000CC5FCC3019F08FEF80936E00C0936F00CF
:1030100084E190B39C7031F48150D9F710927C0216
:1030200010927402DF91CF9108958D3209F069C03A
:10303000683009F0A9CF83EC809351028AE5809330
:103040006F00109275028881807671F0CE010E9427
:10305000C2168F3FC1F4988197FD8E8190E89093BE
:10306000750280936E0090CF2A8110925A02998146
:10307000911111C010925B022AE532E082E0309398
:103080007A02209379029F819111EBCF9E8198174C
:1030900040F7892FE6CF953029F420937C022AE56A
:1030A00032E0EDCF963099F49B81913021F4CE013E
:1030B0000E94131708C09230D1F39330C1F39132BC
:1030C000B1F39232A1F390E490937502C2CF98309D
:1030D00089F0993019F420937E02E1CF9A3071F093
:1030E0009B30E9F69BE490935D0290939602909357
:1030F0006902D5CF2EE732E081E0C1CF2AE532E088
:10310000FBCF8091750287FF3FCFCE010E94FD1655
:103110008F3F21F48EE180936F0036CF882309F42E
:1031200033CF10926E0030CFDC012C2FE2E5F2E0BD
:103130003D9131932150E1F752CFCF93DF9385B783
:10314000886085BF8BB780688BBFCCE5D2E08BE40D
:103150008983A5E9B2E011968C931197E8E6F2E035
:1031600081838AE588838C938083DF91CF91089552
:10317000EE0FFF1F0590F491E02D09942F923F92DE
:103180004F925F926F927F928F929F92AF92BF9277
:10319000CF92DF92EF92FF920F931F93CF93DF9323
:1031A000CDB7DEB7CA1BDB0B0FB6F894DEBF0FBE80
:1031B000CDBF09942A88398848885F846E847D84CD
:1031C0008C849B84AA84B984C884DF80EE80FD80CF
:1031D0000C811B81AA81B981CE0FD11D0FB6F89445
:1031E000DEBF0FBECDBFED010895FB01DC0104C0C1
:1031F0008D910190801921F441505040C8F7881BEF
:10320000990B0895E199FECF9FBB8EBBE09A992759
:103210008DB30895A8E1B0E042E050E00C94351978
:10322000262FE199FECF9FBB8EBBE09A01970DB28E
:10323000021631F02DBB0FB6F894E29AE19A0FBE58
:1032400008950396272F0E9411190E941019252F07
:103250000E941119242F0C9411190196272F0E94F6
:1032600011190C941019DC01CB01FC01E199FECF7E
:1032700006C0FFBBEEBBE09A31960DB20D924150F5
:103280005040B8F70895F894FFCFEB04EB041C0509
:103290001C05C7054B054B054B05E3056F067E0670
:0232A0007E06A8
:1032A2006F0136169316651660165B163916FF5AAD
:1032B200E200E900EA00B500B600B700CD008301E4
:1032C200CC008A01920194012102230224022502E8
:1032D200260227022A02B300B4006F007000818226
:1032E20083E200E900EA00B500B600B700CD008332
:1032F20001CC008A019201940121022302240225B9
:1033020002260227022A02B300B4006F0070008175
:103312008283000105060730319796959493929126
:083322009032333435363700D8
:00000001FF
