:100000000C946E030C948B030C94A6030C948B033A
:100010000C948B030C948B030C948B030C948B0328
:100020000C948B030C948B030C94561B0C948B0335
:100030000C948B030C948B030C948B030C948B0308
:100040000C948B030C948B030C948B030C948B03F8
:100050000C948B0300000000000000000000000072
:100060000000000000000000000000000000000090
:1000700000000000000000007E0F00D4FFFFFFC75B
:100080000000007800000000000000002A2B28007B
:100090000000000000000000000000000000002937
:1000A000000000002C1E3420212224342627252E77
:1000B000362D3738271E1F202122232425263333AF
:1000C000362E37381F0405060708090A0B0C0D0EDB
:1000D0000F101112131415161718191A1B1C1D2FA7
:1000E0003130232D350405060708090A0B0C0D0EC7
:1000F0000F101112131415161718191A1B1C1D2F87
:100100003130354CFD377A585A000004E6D6B446F3
:100110000200210116000000742FE5A3E009C202CD
:10012000E25D003D8889C65436C3174FE4E4696632
:10013000367F2DC2352A9120D3032BA13872C952A4
:10014000549FF2039F83BD6D2384EFFCE1DC71219A
:100150005945D2787B1F97CE80D4719955EC15C242
:1001600010539D6570DBD9094E2BD157FEF740F92E
:100170003EA7225220ACD60E096F40CACDAB11DD8E
:10018000AD8647A264EFC41B26C541F1D1B10FDA99
:10019000E94FDF3D37E557C74900B51E7BAF3C98B7
:1001A00099560C8BC821A7CDB2F34B248E0D86C96E
:1001B000864DA564A1C24B29ACAE10EB26B236EE3B
:1001C00047F0CD15B445A8E38745C49DAFD80A16BE
:1001D00052408450A90591BBFEC2DD6C1E7D2C915E
:1001E00087A030B974E4925535EFADAA0B0B9CD9BA
:1001F000970F3D4D4EB89F50E89BDD5F962280D60D
:1002000048F698BF87C80FD099167E8CBB33E2178B
:10021000C43FE362B9BDEDAC28F057CE475A5A96B9
:100220003CAA2A55356B9F3F3461448BD4C5342892
:10023000F50EF7A067AF5E159BC43EAB244958741A
:10024000595F32E3B42D3381A81A8DEDFC6678AF87
:1002500045C2C064021CB4D5ABC4C5129D6FE65F35
:1002600005A93BDF32A618C71B3E8200654B1B96D3
:1002700047A79EA6FDCA9F4BA635BD8905D9901CF0
:1002800049E6B0BF68BF8A42316EA13BF006FC2E42
:10029000C20B55271FF7196C885ACE90912F652EE7
:1002A000F8DC61593D7B4376716E1D69DD0A2DDAFC
:1002B00060803652789B4A9900EBE8538C8AC1FFE4
:1002C00061E297BA24B1FECC7BAB205691B3794D55
:1002D000C7953DD79BA919D9DA2BC10127B252DFA7
:1002E0006954F26BE13505C5E151C7A7E0CCD1A255
:1002F00009731822642396C98C8D64768CAB6B507D
:10030000CCFDCC715CA3988FBF2072870D40A20EEC
:100310004E58BE6E307BB4C501EEDDB661813E370E
:100320006A7C1EE83D2F3BE349FD43194122DC0076
:100330007C610383A4EF14E1488161724063645FD0
:10034000DB4905476446401C0F0011DFA37546B921
:10035000A26F0C57EDDC411069AAEE9ED88AAAFA6A
:10036000322160B8C90A2D9A200C73B5B0FA2898CA
:100370006E9284EE53BC44F3C81D43FB22DA1CF09A
:1003800060BEE5637F9F8C07BF6B4BE90571034A35
:1003900084A82FE8B2C298C1FB72CC6157B76F7ABC
:1003A000E2949DB2156FAEB4FB69421887DC432F0F
:1003B0003389523D29B70CCA9EDAF60B22F9C5F1F2
:1003C000090E0F0B72303C5BCC6B8E0110BC7B4373
:1003D000FC89B7506127D51BB272B63A3D7C148FA9
:1003E000A0B28CCE3A5197845611CC6AA79D17D5EE
:1003F000BA04FA118721F2B6916FAB78C2CF80AD03
:100400002E955357020000005ACFBD05B10624DCDB
:100410000001FE05C3130000057FB55EB1C467FB94
:10042000020000000004595A3A003B003C003D0025
:100430003E003F00000040004100420043004400F5
:1004400045000000680029001E001F002000210058
:100450002200230024002500260027002D002E0066
:1004600031004C002B0014001A0008001500170082
:1004700000001C0018000C00120013002F003000B8
:100480002A00390004001600070009000A000000D5
:100490000B000D000E000F00330034000000280098
:1004A000E1001D001B00060019000500000005000A
:1004B00011001000360037003800E5000153E0005D
:1004C0000000E20000002C00E300000000000151E9
:1004D0000000E60000000000E40000000100010050
:1004E0000100010001000100000001000100010005
:1004F00001000100010000000100290001000100CD
:100500000100005C01000100010001000100010088
:100510000100010031004C002B000100010001002E
:100520000100010000000100010052000100010073
:10053000010001002A003900010001000100010052
:10054000010000000100500051004F0001000100B7
:1005500000002800E100010001000100010001008D
:100560000000010001000100010001000100E500A0
:100570000100E0000000E20000002C00E3000000A9
:10058000000001000000E60000000000E4000000A0
:1005900005010980A101850319012AB7001501266B
:1005A000B700950175108100C0050C0901A10185F6
:1005B0000419012AA002150126A0029501751081D7
:1005C00000C00660FF0961A1010962150026FF0055
:1005D0009520750881020963150026FF0095207596
:1005E000089102C005010906A101050719E029E7E4
:1005F0001500250195087501810295017508810393
:100600000507190029FF150026FF009506750881CA
:1006100000050819012905950575019102950175D7
:10062000039103C01C037600690061006C003A006E
:10063000660036003400630032006200330063005D
:1006400000000C0350006F00700070007900000083
:1006500018034A00610063006B0020004D00650034
:1006600072006800610072000000040309040902BE
:100670005B00030100A0FA0904000001030101006E
:100680000921010100012240000705810308000142
:1006900009040100020300000009210101000122F8
:1006A0002200070584030800010705040308000170
:1006B00009040200010300000009210101000122D8
:1006C0003200070583030800011201100100000039
:1006D000084F1B01000100010203010011241FBE8D
:1006E000CFE5D8E0DEBFCDBF23E0AEEBB0E001C088
:1006F0001D92AB31B207E1F710E0A0E6B0E0E6EB07
:10070000F2E402C005900D92AE3BB107D9F70E940A
:100710007A1B0C943F210C940000A82FB92F80E085
:1007200090E041E050EA609530E009C02D918227C9
:100730009795879510F084279527305EC8F36F5FF3
:10074000A8F30895EADF8D939D930895CF93CFB7D3
:10075000CF93DF93C395839BE9F7839B10C0839B63
:100760000EC0839B0CC0839B0AC0839B08C0839BE5
:1007700006C0C091F502C395C093F5028EC06F9379
:10078000C091F402DD27C750DD4F2F9365E5839BB1
:1007900003C02F916F91E1CF0F931F934F9320E0F0
:1007A00040E15F9300B30C7003FB27F93F9350E0E7
:1007B0003BE039C01C7040642F77012F5F5F1EC083
:1007C000406810B31C702F7752501FC0406400B3B4
:1007D0002F770C70D1F15F5F00C023C0406210B36F
:1007E0002F771C7091F15F5F00C025C00C7010273F
:1007F000515012F45D5F0000115027952C3F10B34B
:10080000C8F61C700127015027952C3FC8F64227D7
:10081000499300B30C7010274F73115027952C3F4C
:10082000A8F64695469510B31C7079F00127015043
:1008300027952C3F98F66B5A60F3315000B3B0F611
:1008400000C010E81ABF00271CC03B503195C31BE5
:10085000D04010E81ABF0881033C21F10B3411F19C
:100860002091F2021981110F1213EDCF4A81441F1A
:10087000093679F10D3211F0013E29F74F7009F078
:10088000042F0093F8023F915F914F911F910F91B8
:100890002F916F91CAB7C7FD5DCFDF91CF91CFBFC9
:1008A000CF9118952091F802222369F31091F60256
:1008B000112309F049C034300AF448C03093F602DD
:1008C0002093F3021091F4023BE0311B3093F402C9
:1008D0003DC00091F6020130BCF50AE54F7049F4C5
:1008E00030916E0034FD33C000936E00CFECD2E047
:1008F00032C0433059F0443091F03091DA0234FD87
:1009000026C00093DA02CBEDD2E025C030910F0370
:1009100034FD1DC000930F03C0E1D3E01CC0309133
:10092000E60234FD14C00093E602C7EED2E013C025
:10093000052710E000C0000002BB1AC0052710E028
:10094000221F1DC010E021C04AE502C032ED432F36
:10095000C4E1D0E032E011B31C60939A02B311BB42
:100960005CE020E865E320FF052702BB279517958B
:100970001C3FF0F66695B8F7B1F720FF052702BBDC
:10098000279517951C3FD0F62795179517FF052734
:1009900000001C3F02BBB0F629913A9519F7037F7E
:1009A0001091F702110FC651D04002BB11F0109305
:1009B000F20210E81ABF086011B3137F402F437F83
:1009C00054E05A95F1F702BB11BB42BB5CCFFC016E
:1009D0008381833089F130F48130F1F0823021F16C
:1009E00080E00895813209F450C08232C9F7248131
:1009F00035812130310509F466C02115310509F42E
:100A00005AC02230310561F780E995E09093AA023F
:100A10008093A90282E3089589EC96E09093AA025C
:100A20008093A90282E108958EE696E09093AA024F
:100A30008093A9028BE5089582818130B1F08823EB
:100A400061F08230D1F0833059F684E296E09093E1
:100A5000AA028093A9028CE108958AE696E0909319
:100A6000AA028093A90284E0089580E596E090931D
:100A7000AA028093A90288E1089582E496E0909307
:100A8000AA028093A9028CE008958281813081F0CE
:100A9000882331F0823009F0A3CF89EB96E002C0C1
:100AA00080E896E09093AA028093A90289E00895D5
:100AB00089E996E0F7CF84EE95E09093AA028093BF
:100AC000A90280E4089522EC35E03093AA02209335
:100AD000A9020895089508958091A402089588E1D7
:100AE00098E00FB6F894A89581BD0FBE91BDA8956A
:100AF000F894D8E0CEE528E3299320E0299314BEAA
:100B0000FFCF08959C014FB7F89480910D0290910A
:100B10000E02A0910F02B09110024FBF821B930BE7
:100B200008952FB7F89460910D0270910E02809194
:100B30000F02909110022FBF08952FB7F894809163
:100B40000D0290910E02A0910F02B09110022FBFE2
:100B500008959C01FC0132969FEF80E04191461779
:100B600051F09F3F19F4411101C0982F8F5F8630DB
:100B7000A9F79F3F09F40895290F311D97FD3A9574
:100B8000F9016283089520910B0230910C0228171D
:100B9000390771F090930C0280930B02E0910902E7
:100BA000F0910A02309721F00084F185E02D09953B
:100BB000089520910702309108022817390771F033
:100BC0009093080280930702E0910902F0910A02D3
:100BD000309721F00680F781E02D09950895E09186
:100BE0000902F0910A02309729F00190F081E02D7E
:100BF0000995089580E00895CF93DF93EC0140912B
:100C0000FC015091FD016091FE017091FF012FB731
:100C1000F89480910D0290910E02A0910F02B09174
:100C200010022FBF841B950BA60BB70B843F91407E
:100C3000A105B10518F58091FC019091FD01A091ED
:100C4000FE01B091FF018093F8019093F901A09308
:100C5000FA01B093FB0184EF91E0A0E0B0E0809353
:100C6000F4019093F501A093F601B093F701D093AE
:100C70000402C0930302DF91CF9108950E94910571
:100C80006093F8017093F9018093FA019093FB014E
:100C900082E390E0A0E0B0E0E2CFFC018481862313
:100CA00051F492819923B9F06923808583FF05C0AF
:100CB00081E061110FC080E00895892F8F709295B7
:100CC0009F70982B862F8F7062956F70682B81E0D4
:100CD0009613F1CF089581E0FDCF80E00895E82FCD
:100CE000E295EF70F0E031A9282F2F7081E090E0BD
:100CF00001C0880F2A95EAF7982F9095932391AB1E
:100D000092A9892B82AB08959091400192FF06C071
:100D1000282F28712830F9F4877F846093FF06C05C
:100D2000282F28712831F1F4877E846120914101B8
:100D300020FF06C0382F38713830D9F4877F8160A2
:100D400021FF06C0282F28712831D1F4877E8161C8
:100D500094FD877E0895282F24712430F9F68B7F27
:100D60008860DCCF282F2471243101F78B7E8861C5
:100D7000DDCF382F3171313019F78E7F8860E0CFA9
:100D8000282F2171213121F78E7E8861E1CFCF9309
:100D9000DF93EC0182389105A9F1D8F581339105F3
:100DA00009F496C048F58932910509F48AC08A97FA
:100DB00009F495C0C11522E5D20708F0B6C0C115E7
:100DC00031E5D30708F026C1C83ED10508F09CC024
:100DD000C03ED10560F5C83AD10508F087C0C53AD4
:100DE000D10508F0EFC0C130D10509F12097F9F025
:100DF000C430D105E0F440C08533910509F45AC0F0
:100E0000C997C1F680914001837089F0C0EED0E0AF
:100E10000EC0833E910599F170F4803E910501F179
:100E2000823E910539F68091400182FD21C0CE01BC
:100E3000DF91CF910895863E910561F1873E91053E
:100E400071F1843E910509F0B5CF8091410181FF98
:100E5000EECF80914001C7EED0E084FD0DC0E7CF1A
:100E60008091400180FD07C19091410190FFDFCF4B
:100E7000C3EED0E084FFDBCFD0E0C0E0D8CF8091DC
:100E8000400182FDFBC09091410190FDBFCF84FFE6
:100E9000CECFF2CF8091400183FDDDCFC8CF8091CE
:100EA000400183FDEEC09091410191FFF0CFC4EE6F
:100EB000D0E0BDCF8091400185FFB9CFC9E2D0E03D
:100EC000B6CF8091400185FFB2CFC5E3D0E0AFCF70
:100ED0008091400186FFABCFCAE2D0E0A8CF8091DD
:100EE000400186FFA4CFC1E3D0E0A1CFCF3BD10525
:100EF00018F6C85AD0E0CC0FDD1FC658DF4F099056
:100F0000D881C02DD46493CFC11540E5D40708F033
:100F100064C0C11580E4D80708F05CC0CE019A9582
:100F200081159F4108F483CFA7CFC11536E5D307BC
:100F300018F5C11545E5D40708F084C0C11584E54E
:100F4000D80708F07AC09C2F969596959E0123703D
:100F50003327C115D34508F462C0C1E0D0E002C018
:100F6000CC0FDD1F2A95E2F730E2939FC0011124D8
:100F7000C82BD92BDA685BCFC1158AE5D80778F47E
:100F8000C11599E5D90708F068C0C11528E5D20751
:100F900008F472CFDC2FCC27C06FD06A48CFCE01C7
:100FA00090568115904208F067CF8D2F8F710E9467
:100FB000840690E0982F882788279F719C012C2B0E
:100FC000E90149C0C55AD0E0C958DF4FC881D0E017
:100FD000D0642DCFDF70D06A2ACFCE01E4E09695A1
:100FE0008795EA95E1F783702C2F26952695237037
:100FF00040E2249F90011124382B8C2F8370C1E094
:10100000D0E002C0CC0FDD1F8A95E2F7C22BD32BB4
:10101000DC680DCFDC2FCC27C16FD06A08CFC1E0D0
:10102000D0E002C0CC0FDD1F2A95E2F720E2929FAC
:10103000C0011124C82BD92BEBCFDC2FCC27C46FD8
:10104000D06AF5CE8C2F0E948406C82FD0E0DC2F0A
:10105000CC27CC27DF71D062EACE8C2F8F700E9414
:10106000840634E0D695C7953A95E1F7CF709C2F6A
:10107000EC01D069DCCEC9E3D0E0D9CEC2EED0E03D
:10108000D6CEC6EED0E0D3CE80912F01882331F0AA
:1010900010922F0110922E0110922D01089580952B
:1010A00090912C01982390932C01089580912C010C
:1010B00090912B01892B8093C00080912F01882370
:1010C00019F10E949D0520912D0130912E01821B66
:1010D000930B8838934110F00E9444088091C0001F
:1010E00090912F01892B8093C00020E082EC90E04A
:1010F000FC013191CF0131112F5FF0E0883C9F0757
:10110000B9F721110E9444088091000280959091C6
:10111000C000892390910102892B8093C000E09147
:101120000902F0910A02309731F00280F381E02D3C
:1011300080EC90E00995089510922A0110922901FF
:10114000109228010895E2ECF0E09191891303C018
:10115000DF0111971C9290E0E83CF907B1F7089580
:10116000809127019091F600981301C008958F5F38
:101170008770FACF292F963078F58F3068F590E098
:101180003FE0239F800D911D1124682F677023E09D
:10119000969587952A95E1F7FC01EE0FFF1FE80F62
:1011A000F91FE453FF4F50E040E080E0219130E030
:1011B000062E02C0369527950A94E2F72170332750
:1011C000042E01C0220F0A94EAF7822B4F5F5F4F73
:1011D0004330510559F7089580E00895292F96303E
:1011E00098F58F3088F590E03FE0239F800D911DAA
:1011F0001124282F277041E001C0440F2A95EAF7F7
:1012000023E0969587952A95E1F7FC01EE0FFF1FE5
:10121000E80FF91FE453FF4F30E020E070E05191F8
:10122000DF011197CB01022E02C0969587950A9493
:10123000E2F7817081958527842385278C932F5F22
:101240003F4F2330310559F7089590E080E00E9428
:10125000D90590E080E00E94C30510922B010E9406
:10126000560808958093CE020E9425090895809122
:10127000CE02982F9670963021F488600E94320931
:101280000895877FFBCF21E030E001C0220F8A95CF
:10129000EAF720958091CE0282230E9432090895B8
:1012A00090912A018095892380932A01282F277005
:1012B00091F4282F082E000C330B9217130659F0C7
:1012C0009091410192FF07C08595859585950E9473
:1012D00043090E949C08089521E030E001C0220FDC
:1012E0008A95EAF78091CE02822B0E9432090895F6
:1012F0009091410192FF10C098E0899F90011124C4
:10130000622B60932A010E946C090E949D059093B4
:1013100029018093280108950E946C090895809303
:1013200030010E9425090895882341F0809590910D
:101330002B01892380932B010E945608089588234E
:1013400039F090912B01982B90932B010E94560815
:101350000895882321F00E944F080E94560808959E
:10136000882339F090912C01982B90932C010E94A6
:1013700056080895882339F19CEF980F913A28F484
:101380000E94A3080E945608089590E2980F983092
:1013900050F4877091E001C0990F8A95EAF7892F80
:1013A0000E944F08EFCF9BE5980F933028F490E010
:1013B00080E00E94D9050895885A873120F490E092
:1013C00080E00E94C3050895FF920F931F93CF936F
:1013D000DF93F82E00910502109106020115110508
:1013E00009F449C010920402109203021092000204
:1013F00010920102D8011696CD91DC919E013A958A
:1014000021153F4108F4D07ED1E0C11101C0D0E0E8
:10141000D8011996ED91FC911A97309731F01B96EF
:101420006D917C9180E00995D823DD2339F08CEF14
:101430008C0F813A30F58C2F0E94A308FF2099F081
:10144000E0910502F0910602808584FD0CC0809138
:101450000202882341F0808191819C012150310951
:101460002C3A3D45A0F00E945608109206021092B8
:10147000050210920202C801CDB7DEB7E5E00C9478
:10148000BC200E9456088C2F0E94BA09D7CF0E9418
:10149000FC05E9CFCF93C82F8823A9F08CEF8C0FE0
:1014A000813A98F4E2ECF0E088EC90E02191C217E8
:1014B000B9F18E179F07D1F76C2F80EC90E00E9456
:1014C000A9050E945608CF91089580E28C0F8830BC
:1014D00068F4C77021E030E001C0220FCA95EAF736
:1014E00080912C01822B80932C01EBCFEBE5EC0F4C
:1014F000E33040F4F0E0E958FF4F808190E00E9433
:10150000D905E1CFC85AC731F0F6EC2FF0E0EE0F65
:10151000FF1FE658FF4F808191810E94C305D3CF02
:101520008C2F0E94A3080E945608C6CF9C013A95B2
:1015300021153F4150F5FC01EE27F170BC016627F3
:101540007270AC01442754709C012227387094FFBC
:101550000EC080E1EF2B09F480E0672B09F0806278
:10156000452B09F08064232B89F08068089581E081
:10157000EF2B09F480E0672B09F08260452B09F01E
:101580008460232B19F08860089580E00895CF933C
:10159000DF93EC010E94960A9E01205E31092830FB
:1015A000310510F0209741F40E94B0098C2F0E9461
:1015B0004A0ADF91CF9108950E949F09F7CFCF93F8
:1015C000DF938091F602835087FD14C09091F4025E
:1015D000CCE0D0E0C91BD109C750DD4F9091F30298
:1015E000903108F06BC0883009F453C01092990212
:1015F0001092F60280916E0084FF3EC080916D00D3
:101600008F3FD1F1C82F893008F0C8E0982F9C1B7C
:1016100090936D009091CF0228E892279093CF028B
:101620008823E9F08091A9029091AA022091A80252
:1016300026FF06C1FC012C2FA0EDB2E034913D93B2
:1016400031962150D9F79C012F5F3F4F8FEF8C0FC0
:10165000820F932F911D9093AA028093A9026C2F61
:1016600080ED92E00E94A203CC5FCC3019F08FEFA6
:1016700080936D00C0936E0084E190B39C7031F450
:101680008150D9F71092F7021092F202DF91CF91B8
:10169000089580919902893108F0A8CFE82FF0E0F1
:1016A000E555FD4F9E01285F3F4F999191932C176F
:1016B0003D07D9F7885F809399029ACF9D3209F050
:1016C000A3C0883009F094CF83EC8093CF028AE5E1
:1016D00080936E001092A8028881807609F447C03A
:1016E000803229F58981813099F48C819D81892B03
:1016F000F1F48BE992E09093AA028093A90288E02A
:101700009F81911131C09E81981770F5892F2CC04F
:10171000823041F48AE992E09093AA028093A90270
:1017200081E0EECF8A3029F48B8180939A0280E0A9
:10173000E7CF8930E1F78A819B818115924069F476
:101740008C819D81892B49F481E08093A7028E8151
:101750009F819093A6028093A502888187FF52C043
:101760008E8190E89093A80280936D0041CF2A81EA
:101770001092D802998191110AC01092D90228EDD5
:1017800032E082E03093AA022093A902B9CF9530CB
:1017900029F42093F70228ED32E0F4CF9630C1F41B
:1017A0009B81913049F4CE010E94E70490E490932C
:1017B000A8028F3F91F2A4CF9230A9F3933099F30E
:1017C000913289F3923279F390E49093A80298CF02
:1017D000983089F0993019F42093A302DCCF9A3025
:1017E00071F09B30C1F69BE49093DB029093100361
:1017F0009093E702D0CF23EA32E081E0C3CF28ED17
:1018000032E0FBCF8FEFADCF8091A80287FFF0CE03
:101810008091A5029091A602892B71F08091A70278
:10182000813051F488818093A4021092A602109214
:10183000A50210926D00DCCE8EE180936E00D8CEB2
:10184000DC012C2FE0EDF2E03D9131932150E1F7E6
:10185000FACE1F93CF93DF93E82F792F162FEA014B
:10186000888184FF1CC0298188E828272983CE012C
:101870000296DC012E2F372F512F5E0FF901219197
:101880002D939F01452F4E1B1416C4F3612F0E9408
:10189000A2031C5F1883DF91CF911F9108958AE501
:1018A0008883E5CFCF93DF93CBEAD2E08091E60245
:1018B00084FF19C046EE52E068E0CE010E94290C78
:1018C000289682E0CB3CD80789F78091E60284FF16
:1018D0000DC046EE52E060E090E080E00E94290CEE
:1018E000DF91CF9108950E94DF0AE0CF0E94DF0AC6
:1018F000ECCF90919802981307C0209196023091F6
:10190000970226173707B9F08093980270939702D1
:101910006093960280939302709395026093940271
:1019200080910F0384FF07C04FE053E063E083E939
:1019300092E00E94290C0895BC0184E00E94790C79
:101940000895BC0183E00E94790C0895CF93DF9342
:10195000CAE0D0E08091DA0284FF1CC0809191023D
:1019600090919202981799F028E0829FC00111246B
:101970004AED52E068E08F5E9D4F0E94290C8091F5
:10198000910290E001968F70992780939102DF91E8
:10199000CF9108950E94DF0A8FE99FE00197F1F748
:1019A00000C000002197B1F6F2CFCF93DF93EC0196
:1019B000A0919202B0E0CD0101968F7099272091FD
:1019C0009102281779F093E0AA0FBB1F9A95E1F7CF
:1019D000AF5EBD4F98E0FE0101900D929A95E1F740
:1019E000809392020E94DF0A0E94A60C88E0FE010A
:1019F000ABE9B2E001900D928A95E1F7DF91CF91CA
:101A000008951F93CF93DF93182FD0E0C0E0893360
:101A100011F4C0E5D0E0812F0E944A0A209739F4E2
:101A2000812F0E94BA09DF91CF911F9108958FE90C
:101A30009FE00197F1F700C000002197EFCF0F93CF
:101A40001F93CF93DF93C62FD42F022FFC018281E7
:101A50008823A9F06093CD020E949D059093CC024B
:101A60008093CB02C77081E001C0880FCA95EAF766
:101A70000E94B009DF91CF911F910F91089580913D
:101A8000CD02681332C08091CB029091CC020E94AB
:101A90008205883C910548F510E21D0FCD17B9F07D
:101AA00080E28C0F883040F4C77081E001C0880F5D
:101AB000CA95EAF70E94A909183048F481E09D2FE1
:101AC000977001C0880F9A95EAF70E94B009802F9D
:101AD0000E94010D183070F6D77081E001C0880FA8
:101AE000DA95EAF70E94A909C5CFC77081E001C065
:101AF000880FCA95EAF7F6CFB0E0A0E0E2E8FDE093
:101B00000C949B20EC018AE0A82E2881222309F462
:101B10008FC02130C9F599818A81913021F42296B4
:101B20000E94010D05C0923029F422960E944A0AB3
:101B30002196EBCF933021F422960E94BA09F8CF78
:101B4000943011F02196F4CF229630E020E0AE01DF
:101B50004F5F5F4F8053990B8A30910550F02150B1
:101B6000310930F38FE99FE00197F1F700C00000E1
:101B7000F6CFA29EB001A39E700D11249C01260FEA
:101B8000371F8981EA01E3CFE22FF0E0EC57FF4FE6
:101B9000B490822F86958695869590E0FC01EC584E
:101BA000FF4FE4902770F12C022E02C0F594E794C9
:101BB0000A94E2F731E0E322FF24FC01EC59FF4FE5
:101BC000C490D12C022E02C0D594C7940A94E2F797
:101BD00031E0C322DD24FC01EC5AFF4F049110E0F8
:101BE00002C0159507952A95E2F701701127E114B7
:101BF000F10419F081EE0E944A0AC114D10419F0CF
:101C000086EE0E944A0A8B2D0E94010DC114D10458
:101C100019F086EE0E94BA09E114F10419F081EE80
:101C20000E94BA090115110509F482CF8CE278CF20
:101C3000CDB7DEB7EAE00C94B720CF93DF93C7E4CB
:101C4000D3E060E0CE010E9405212196C11584E019
:101C5000D807B9F7DF91CF9108951F93CF93DF9302
:101C6000122F8430E0F46630D0F44F30C0F4C42F2B
:101C7000D0E0CC0FDD1F9EE1699FC00DD11D112466
:101C800094EB899FC00DD11D1124632FCE0187963F
:101C90000E940521612FCE0188960E940521DF91C7
:101CA000CF911F910895CF93C82F6FEF811168EAEC
:101CB00083E290E00E9405216FEFC1116EE884E29B
:101CC00090E00E9405216FEFC11168E985E290E084
:101CD0000E940521CF910895CF93C0914101C2FB8D
:101CE000992790F9981791F080FBC2F9C0934101B0
:101CF0006091400184E090E00E9405216C2F82E217
:101D000090E00E94052182E00E945009CF91089541
:101D1000AAE0B0E0EEE8FEE00C949820A090EE017E
:101D2000B090EF0181E090E09093EF018093EE019D
:101D300088E2C82E84E0D82E00E0760110E015C0BD
:101D4000F40125913491472D612F802F0E942D0E93
:101D500082E0880E911C73949FE07912F1CFEEE13E
:101D6000EE0EF11C1F5F163019F04701712CE8CF01
:101D70000F5FF4EBCF0ED11C0430F9F6CE010196C3
:101D80007C018AE0F70111928A95E9F78FEF9FEFC6
:101D90009E838D8387E08A8707EF12E04AE050E058
:101DA000B801C7010E942821065F1F4F0734F3E0E6
:101DB0001F07A1F7B092EF01A092EE012A96EDE085
:101DC0000C94B42080E00E94530E60E086E290E024
:101DD0000E9405210E94880E0E941D0E81E00E9433
:101DE000530E08950F931F93CF93DF93843030F5F4
:101DF000663020F54F3010F5C42FD0E0CC0FDD1F3A
:101E00002EE1629FC00DD11D112434EB839FC00DC4
:101E1000D11D1124CE0187960E94F720082F10E0D3
:101E2000102F0027CE0188960E94F7209801282BBA
:101E3000C901DF91CF911F910F91089590E080E04B
:101E4000F8CF462F2091F2013091F301232B99F422
:101E5000703F39F4603F79F48091F0019091F10185
:101E60000895843040F4763030F46F3020F4672FDA
:101E70000E94F20E089590E080E00895CF92DF92E4
:101E8000FF920F931F93CF93DF936C010091CE02CB
:101E900080913001082BC7E0D0E010E0FC2EC80193
:101EA0000C2E02C0959587950A94E2F780FD0CC030
:101EB0002197A0F7F12C8F2DDF91CF911F910F91DA
:101EC000FF90DF90CF900895B6018C2F0E94210FD4
:101ED0000E94C706019761F3EECFCF93DF93EC0129
:101EE0000E943E0FBE010E94210F0E94C706DF9193
:101EF000CF910895FC01808191810E946D0F929590
:101F00009F70963091F058F4925F9F70923058F421
:101F1000803F19F030F4883E30F481E008959A5FF4
:101F2000F4CF843FD1F380E00895883EB0F3813F41
:101F3000D1F7F3CF83E290E00E94F720883A89F44A
:101F400084E290E00E94F7208E3859F485E290E018
:101F50000E94F72091E0883909F090E0892F817084
:101F6000089580E0FCCFCF9384E090E00E94F720BA
:101F7000C82F82E290E00E94F720982F8C2FCF91FB
:101F8000089510922C01E2ECF0E086E0DF011D9252
:101F90008A95E9F70E94250908950E94C10F2FEF45
:101FA00084E39CE0215080409040E1F700C00000B5
:101FB00088E198E00FB6F894A89581BD0FBE91BD59
:101FC000FFCFAAE0B0E0E7EEFFE00C94992006E72F
:101FD00011E084E6C82E81E0D82E97EFE92E92E03A
:101FE000F92E27E0922E33E6A32E31E0B32E88247B
:101FF0008394D6010D931D936D014AE050E0B70123
:10200000CE0101960E94E720F8013896DF01892D64
:102010001D928A95E9F789819A81D80111969C933E
:102020008E938F8112968C9312978D8113968C9339
:102030001397888514968C931497898515968C939D
:1020400015978B819C8117969C938E931697189663
:102050001C9218978A8587FF3CC01E961C921E9280
:102060001D9780FF03C0D80118968C9281FF04C091
:10207000F80190859260908782FF07C0D80118967A
:102080009C911897946018969C9383FF04C0F80164
:1020900090859860908784FF07C0D80118969C911E
:1020A0001897906118969C9385FF04C0F80180856D
:1020B00080628087015F1F4FFAE0EF0EF11C87E41A
:1020C000E81683E0F80609F094CF2A96ECE00C9429
:1020D000B520F801B686A586C4CFACE0B0E0E3E752
:1020E000F0E10C9497208E010F5F1F4F8CE0F801F8
:1020F00011928A95E9F728EAE22E20E0F22E680193
:1021000066246394712C4DEB842E40E0942EF701ED
:1021100081917F018F3FF1F1E82FE295EF70F0E0C0
:1021200091A9282F2F70A30102C0440F551F2A9593
:10213000E2F79A01942B91AB92A92095292322AB27
:1021400000C0EEEAF0E041E050E0B12CA12C91910A
:102150009F3F09F483C0A92FA295AF70B0E0D0963D
:102160002C9130E09F7002C0359527959A95E2F743
:1021700020FD74C09A01A22AB32A440F551F8E165F
:102180009F0629F70E946F0650EA5A95F1F7F6016B
:10219000B182A082F2E0CF0ED11C4EEAE41640E0FC
:1021A000F40609F0B4CF4CE050E0B80184E391E0CC
:1021B0000E94D320FF24F394009709F4F12C892B7B
:1021C00009F44FC08CE0F801A4E3B1E001900D9256
:1021D0008A95E1F781E0809333010E949D059093F9
:1021E00032018093310180913101909132010E943E
:1021F00082050597D0F1809134019091350190933B
:10220000550180935401809136019091370190934C
:102210005701809356018091380190913901909334
:1022200059018093580180913A0190913B0190931C
:102230005B0180935A0180913C0190913D01909304
:102240005D0180935C0180913E0190913F019093EC
:102250005F0180935E011092330107C030E020E0FF
:102260008ACF809133018111BECF8F2D2C96EEE065
:102270000C94B32068EE7EEF90E080E00E94222173
:1022800060E082E090E00E94052160E083E090E061
:102290000E9405211092300160E084E090E00E94ED
:1022A000052164E082E290E00E94052160E085E083
:1022B00090E00E94052160E086E090E00E94052108
:1022C0006FEF87E090E00E94052140E050E0BA0106
:1022D00088E090E00E94162160E08DE090E00E948E
:1022E000052140E050E0BA0188E190E00E9416210B
:1022F00060E087E190E00E94052140E050E0BA01F3
:102300008CE190E00E94162170E060E080E290E0B5
:102310000E94222140E050E0BA0188E190E00E9452
:10232000162180E00E94530E0E94E20E40E050E031
:10233000BA018FE090E00E94162140E050E0BA011F
:1023400083E190E00E9416210895A8E0B0E0EBEA56
:10235000F1E10C9493207C01DC0113968D919C910A
:102360001497892B39F08C9111969C9189238F3F7A
:1023700009F048C62896E2E10C94AF200E943E0F77
:10238000182F682F89819A810E94EE0869817A81CD
:10239000812F0E94210F8C01F7015280552009F4F2
:1023A00091C582519F45409708F06AC58FEF93E031
:1023B0000E94F7208111A8C06EEED62ED00E07E441
:1023C00013E0D11036C019821A821B821C82992414
:1023D0009A9468012FEFC21AD20AC8010E94F7200E
:1023E00089831A82882309F48FC0813009F081C063
:1023F000580132E0A30EB11CC6010E94F720C82E7E
:102400008A83882309F480C0C5010E94F720D82E52
:102410008FEF8C0D8330D8F4580143E0A40EB11C2B
:10242000DB82DD2021F0CE0101960E947C0D85012A
:10243000D0CF0115F4E01F0709F466C0C8010E945F
:10244000F720811101C0DA940F5F1F4FBACF8BEFD5
:102450008C0D833040F5C8010396DB825C01DD20E2
:1024600031F3580154E0A50EB11C0E94F7208C8373
:102470008823E9F20B811C8101308FEF180710F0DF
:10248000102F002796E0C91651F0A7E0CA1619F0E0
:10249000C8010E94301BC8010E94F81AC8CFC801A9
:1024A0000E94301BC4CFB4E0CB12C1CF5801E4E08E
:1024B000AE0EB11CC80103960E94F720DD2021F169
:1024C000882311F18150990B989E9001999E300DAF
:1024D00011244D2D4150550BCA01820F931F0197B6
:1024E00008F4A5CFAFE9BFE01197F1F700C00000F5
:1024F000F6CFCE0101960E947C0D560198CF81E067
:102500000E946C090E94370980912A01877009F4A2
:1025100031CFF7018281882309F42CCF80914101CA
:1025200082FF28CF82E00E94500924CF81E00E94E0
:102530004309E8CF82E0E4CF82E0F9CF81E08093E5
:102540006000E2CF80954822E9C4552009F41DC4FB
:102550001093C9000093C8000E9491056093FC018C
:102560007093FD018093FE019093FF01109204028D
:1025700010920302D3C482FB882780F912C555202C
:1025800001F181700EC50E94BA0981C50497813A94
:10259000910558F46A2D80EC90E00E94A905552021
:1025A00009F4DAC30E945608AFCF0E9456088FE3A1
:1025B0009CE90197F1F700C000008A2D0E944A0AA9
:1025C000EECF9E819F5F9E83C1C4FC01208131813B
:1025D0000217130709F0B9C35110B9C310920202D0
:1025E00080E00E94E409B8C3053F4CE51407C9F038
:1025F000A0F027E245EE66EE063F8CE5180709F0ED
:10260000EEC3C7010E941F0D7FCF27E245EE65EEA6
:10261000F8CF26E241EE60EEF4CF27E245EE64EE1D
:10262000F0CF26E241EE62EEECCF28E241E0EFCFC0
:102630000136FDE51F0709F4E9C3053A2DE5120748
:1026400009F4E4C306318CE5180709F054C58091FC
:102650002C018A7A91E009F490E09093CA0069E233
:10266000811165E380EC90E00E94A9059BCF8091E9
:102670004001806207302CE5120709F49DC080916B
:102680004001806108303CE5130708F495C0809153
:102690004001806491C0809140018B7F0D304CE5FA
:1026A000140709F489C088F40B308CE5180709F485
:1026B00098C0809140018C600C309CE5190708F4AB
:1026C0007BC0809140018D7F77C0809140018F7EDB
:1026D0000F30ACE51A0709F46FC080914001877F85
:1026E0000031BCE51B0708F467C0809140018F7D75
:1026F00063C00D3FECE51E0709F47BC058F50531BA
:102700002CE5120709F483C098F480914001837F7F
:1027100003314CE5140709F44FC008F472C00E945D
:10272000C10F90914001892F97FB87F9805844C0D1
:102730000B3F8CE5180709F44AC008F056C0809199
:10274000410181600A3FACE51A0709F089C3809313
:10275000410186C30130BDE51B0709F464C0C0F424
:10276000809141018C7F0F3FFCE51F0781F3809131
:102770004101836001152DE5120748F38091410165
:10278000982F909591708E7F892B90FB81F9DFCFE8
:1027900001363DE5130709F44CC0053A4DE5140731
:1027A00009F44EC002305DE5150709F059C360E039
:1027B0003BC08091400182608093400151C3809171
:1027C00040018460F9CF809140018860F5CF80910D
:1027D00041018260BCCF0E94C10F8091400180689E
:1027E000EBCF809140018E7FE7CF809141018E7FBA
:1027F000AECF809141018D7FAACF809140018F7B28
:10280000DBCF0E94C10F809140018F77D5CF80919F
:10281000400182FB992790F921E0922790FB82F9F1
:1028200090FB83F9C9CF61E08EE090E00E94052122
:1028300017C390914001892F8F7E94FF8061BCCF98
:1028400090914001892F8E7F90FF8160B5CF85E305
:10285000F6C30E94C10F9FEFA4E3BCE09150A040DB
:10286000B040E1F700C000000E946F054DCE80919E
:10287000410182FB882780F991E089270E946C0E34
:10288000D70112968C9112970D911C91882309F40F
:1028900045C0C8010E943E0FD82E682FC8010E9473
:1028A000EE08B8018D2D0E94210F0E94C7068C01F1
:1028B000882EF701C280B580B2943FE0B3228091A8
:1028C0002A018770C1F0AC2CCC20B1F0812F807F21
:1028D000803421F080E2800F883068F080914101DF
:1028E00082FF09C082E00E94500980912A0187700E
:1028F000AA24A3948111A12C912E92942FE09222CC
:10290000FBE0F91508F479C0E92DF0E0EF5BFE4D2E
:102910000C94862081E0B2CF80E0B0CFC8010E9445
:10292000BA08D82EBECF212F2F70D22E107F19F0CB
:10293000D29490EFD922CC20B9F0DD2069F080E26A
:10294000800F883010F0811009C080912C01D82AA6
:10295000D0922C010E945608802F4DC080912B01EF
:10296000D82AD0922B01F6CF802F0E94BA09DD2001
:1029700009F443C0005E083010F0811004C08D2DB2
:102980000E944F0806C0D09480912B01D822D0928B
:102990002B010E94560831C0312F3F70D32E107F7B
:1029A000103219F0D29480EFD8228820A1F041E0B3
:1029B000841609F493C0CC2009F49CC0BB2009F410
:1029C00069C0D70115968C91159780FFC5CF8F7080
:1029D00015968C935FC08091410182FD34C0CC205C
:1029E00061F1DD2039F080912C01D82AD0922C01A0
:1029F0000E94560880E00E944A0AA92DA850BB0BED
:102A0000149710F40E94EF05AA2009F4B3CC80912A
:102A10002A0180FDAFCCF7011282859585958595B9
:102A20000E946C09C7010E94A51180912A01859519
:102A3000859585950E9443099DCC80E00E94BA0946
:102A4000DD20D9F29CCFCC2049F1B11004C0809197
:102A50002F018D2920C051E0B51210C082FFCDCFCB
:102A600080912F01D82AD81641F20E949D0590939B
:102A70002E0180932D01D0922F01BFCF85E0B81297
:102A8000E6CF0E9444089091CB008D2D892B8913AD
:102A90008093CB008D2D0E94B009AFCFB11003C041
:102AA0000E94440812C091E0B91213C080912C0119
:102AB0008D2109F4A2CF0E9444089091CB008D2D66
:102AC0008095892389138093CB008D2D0E94A909BD
:102AD00094CFA5E0BA1609F490CFE2CFCC2029F02C
:102AE000B5E0BB1508F489CFD5CFE4E0EB1508F4C9
:102AF00084CFEBCFBB2049F3B9E38B1209C0EFEFD2
:102B0000F7EE23E0E150F0402040E1F700C0000084
:102B1000802F0E94BA0971CF812F86958695837088
:102B200061F0813009F069CFC8019370C11002C013
:102B300090E080E00E94C30560CFC8019370C1108F
:102B400002C090E080E00E94D90557CF812F8370AA
:102B500089F5C11052CF402F429546954770440FDA
:102B6000440F802F8F70042E01C0880F0A94EAF75B
:102B7000202F207104FF07C02FE030E001C0220F9A
:102B80004A95EAF72095169516951370123069F05C
:102B900050F430913001113029F0822B83230E94B0
:102BA0008F092BCF832B822BFACF282B80913001DA
:102BB0008227F5CF8695CC2011F0812F8170882354
:102BC00009F41BCF402F429546954770440F440FA0
:102BD000802F8F70042E01C0880F0A94EAF7202FEF
:102BE000207104FF07C02FE030E001C0220F4A959A
:102BF000EAF72095169516951370123069F050F487
:102C00003091CE02113029F0822B83230E943209A9
:102C1000F4CE832B822BFACF282B8091CE028227F1
:102C2000F5CF1F70CC2029F0812F0E946C09802FD6
:102C300032CF802F0E94A909812F0E944309DDCE47
:102C4000802F32EF8316B1F1381570F040EF841603
:102C5000D1F051EF851691F0CC2009F466C0B11087
:102C60007BCE812F8F712AC093EF891651F1A4EF8B
:102C70008A12F2CF8091410182FD2FC0812F8F7186
:102C8000CC20D9F21BC0CC2081F0B4E0BB1508F4F5
:102C9000B4CE1F7181E090E0012E01C0880F0A942C
:102CA000EAF79091CE028927B1CFE5E0EB1508F461
:102CB000A4CEEFCF812F8F71C110BFCF0E946C09BE
:102CC0009CCE80E0CC2009F4A1CF1F7181E0012EC1
:102CD00001C0880F0A94EAF799CFCC20C9F08091FF
:102CE0002A018770843041F40E949C08812F8F71E3
:102CF0000E944309A12C81CEF4E0FB15D8F31F718B
:102D0000812F0E946C0963E0812F0E947809F2CF25
:102D100024E02B1530F40E949C0864E0812F8F7111
:102D2000F4CF81E00E945009E5CFBB2059F08933F0
:102D300009F0EECE3FEF47EE53E0315040405040B7
:102D4000E1F7E4CE812F8F7178CF552029F0DC0197
:102D500018968C9185FF44CC033FBCE51B0709F412
:102D600058CC08F041CC083DFCE51F0709F44DCCD8
:102D7000093D2CE5120709F458CC073D3CE5130743
:102D800071F526E241EE61EE3CCC8091C800909155
:102D9000C9000817190781F41092C9001092C800E1
:102DA0001092FC011092FD011092FE011092FF01A1
:102DB0001092040210920302809105029091060283
:102DC000009751F2A8E08A16910408F0FECB642D1A
:102DD0000E944D068111C0CF81E00E94E409D70115
:102DE00012968C91882309F420C11092CD020330F1
:102DF000BDE51B0708F01CCC0A3FECE51E0730F4CC
:102E0000C80182509C45449708F01CCC0E94B30F27
:102E1000909341018093400101313CE5130709F48F
:102E2000ECCC08F066CC09305CE5150709F4D3CC8E
:102E300008F031CC05309CE5190709F4C4CC08F042
:102E400016CC0330BCE51B0709F4B3CC08F0B7CCB3
:102E50008091400181600230FCE51F0709F4ACCC91
:102E6000609140011091410184E090E00E940521B1
:102E7000612F82E290E00E9405210E94C10F44CBA5
:102E80000031BFE51B0709F43ACB0131EFE51E071E
:102E900009F450CB0F35EDE51E0709F44FCB003692
:102EA000FDE51F0749F00E352DE51207A1F48091CD
:102EB0006000882309F442CB1092600080E00E94F9
:102EC000E40922CB8031FFE59F0709F42FCB813144
:102ED0009F4509F431CB80916000882309F43CCFF1
:102EE000480130EE831A910840902F018091CB0069
:102EF000482A80912C01482A48E08416910408F061
:102F000024CB98012770332781E090E001C0880F1F
:102F10002A95EAF7552009F415CB482AD7018D9157
:102F20009C910E94BA0821E030E0190102C0220CF5
:102F3000331C8A95E2F7E0910502F0910602F887CA
:102F4000EF836090C8007090C9001E822E81E22F2E
:102F5000F0E0EE0FFF1FEC59FE4FC080D180C1148E
:102F6000D10409F429CF411005C0D60112968C91E5
:102F7000811127CBF601838190E082219321892B57
:102F800009F41FCB8085982F977009F487E0F8E04B
:102F90008F16910408F0F3CA552009F4ECCA8695FF
:102FA0008170882309F40DCBD601AD90BC900A1531
:102FB0001B0519F4552009F404CBEF81F885CE16D2
:102FC000DF0609F4FECAD6011D96ED91FC913097FB
:102FD00021F08081882309F4F4CA642DC6010E947F
:102FE0004D06882309F4EDCA0A151B0559F501158C
:102FF000110561F151102CC0A614B70409F0E1CA03
:10300000512C26C085E0F701DE01119601900D924A
:103010008A95E1F7D70112962C9189819A81211125
:10302000ADC90E94BA08182FB1C90631BCE51B070B
:1030300009F026CC8091CA00811109CC89E20E9456
:10304000A308B0CAA114B104B9F6512CB12CA12C1B
:1030500080E00E94E409D0920602C092050281E05D
:1030600080930202D60115968C9180930002511034
:103070000EC0AB2861F0F601808191819C01245043
:103080003109213A310508F07ECA0E94A308D60111
:103090001696AD90BC90C5019A9581159F4110F48C
:1030A000E0EEBE2277247394C50101978C3A9D45CA
:1030B00008F0712CD6011996ED91FC911A97309772
:1030C00031F01B966D917C9181E0099578227720F3
:1030D00079F0F601868197810E94960A8093010219
:1030E000C501F8E08F16910408F050CA0E94FC0553
:1030F0000E94560854CA0A35EDE51E0709F40ACCA9
:1031000068F401152CE5120709F4A3CB0E3D1C450C
:1031100009F0B6CB0E943A110E94CD0F0C354DE557
:10312000140709F4A4CB08F4F7CB073A1D45A1F323
:10313000A7CB1F93CF93DF938091F500807F09F099
:1031400049C08091F200882309F444C0809127018E
:10315000D091F6006091F0007091F100A091F30021
:10316000B091F400C62FC72316E0D81799F190E06C
:10317000109711F0CF3F19F401968770F6CF189F82
:103180009001199F300D1124F901E950FF4F418141
:103190004713F2CF40814613EFCF42814111ECCF6C
:1031A000438154814A1B5B0B483C510528F78091B1
:1031B000F5008F7080618093F500F901E450FF4FB6
:1031C00080818F708061808380EF90E00E94A511E4
:1031D0000E94B008DF91CF911F910895A1E1B0E066
:1031E000E4EFF8E10C949B208C0185E0F801DE010E
:1031F0001D9601900D928A95E1F7F801E28080EF2B
:10320000A82E80E0B82E6091F3007091F400611553
:10321000710509F426C19091F0004091F100892FC9
:1032200084238F3F09F41DC120813181C380D48064
:10323000F090F200F601E61BF70BFF2009F4DCC06A
:103240008091F500582F507FE83CF10508F09FC0B1
:1032500051116BC0FE2C431314C0921312C0E11025
:1032600010C08F7080618093F500C5010E94A51188
:103270008091F500F80185838F2D6196EAE00C942A
:10328000B720C114D10429F0822F83238F3F09F086
:1032900003C180E0F82FF170DF2E80FF3CC08091E9
:1032A00027014091F60056E0841315C02D873E8714
:1032B0008D859E850E946D0F292F22952F702230BB
:1032C000F0F0243018F59F70F1F0F8019581907FAF
:1032D000D1F4D12C1EC090E0589FF001599FF00D01
:1032E0001124E950FF4F6181361306C06081261317
:1032F00003C06281E6120FC001968770D5CF9F7020
:1033000011F0882331F3805E883018F3C8010E94E1
:10331000A511FD2CB1CFEE2009F4AECF8091F500C0
:1033200081608093F500F12CA7CF431306C0921360
:1033300004C0F801EE2009F479C0C8010E947A0F98
:10334000882309F1EE20F9F08091F500803270F0C9
:103350002091F0003091F10038872F831986DB86A9
:10336000CA868C87CE0107960E94A51186E0F801D7
:10337000A0EFB0E001900D928A95E1F70E949918B4
:10338000FF24F39479CFC8010E94A511F9CF511100
:103390000AC080EF90E00E94A51186E0F50111922D
:1033A0008A95E9F7C0CF43130FC092130DC0E11007
:1033B0000BC0F8018583C8010E94A51186E0F501C4
:1033C00011928A95E9F758CFC8010E947A0F882395
:1033D000D1F2EE20C1F28091F500803238F22091D6
:1033E000F0003091F1003A8329831B82DD82CC8288
:1033F0008E83CE010196B8CFE83CF105F8F6FE2C9D
:10340000EE2009F243131FC092131DC08091F500F6
:1034100080FD10C0982F907F69F0F8018583903F60
:1034200031F0982F907F905F8F70892B8583C80132
:103430000E94A51186E0F801A0EFB0E001900D9286
:103440008A95E1F719CFC8010E947A0F81118ECFBA
:103450008091F50081608093F500C8010E94A5115C
:103460000BCFEE2009F48FCFC8010E947A0FF82EFF
:10347000882309F488CF86E0F801A0EFB0E001903E
:103480000D928A95E1F78091F0009091F1000E94F1
:103490006D0F0E949918F0CE81E08E25FBCEA7E13A
:1034A000B0E0E5E5FAE10C94A2204B8B5C8B6D8BD0
:1034B0007E8B8F8B611110922B011A8A198A85E0FD
:1034C000FE017396DE011D9601900D928A95E1F73B
:1034D0008091410182FF1CC00E949D05209128011E
:1034E00030912901821B930B8838934120F0809101
:1034F0002A0182FF79C00E949D0520912D01309103
:103500002E01821B930B8838934110F00E944408CF
:1035100086E0FE013D96DE01179601900D928A9598
:10352000E1F7CE0107960E94EE18882359F016E0C5
:10353000809127019091F600891343C06796E3E0DC
:103540000C94BE2086E0FE013796DE0111960190B4
:103550000D928A95E1F78A859B85892B41F38F81AE
:10356000988589238F3F19F32091F60030E0C90137
:10357000019687709927409127014817190671F421
:103580000E94C10F1092F6001092270186E0E0EF32
:10359000F0E0DF011D928A95E9F7C9CF96E0929F8E
:1035A000D001939FB00D1124A950BF4FFE01319659
:1035B00001900D929A95E1F78093F6000E94B00871
:1035C000B6CF819FC001112489509F4F0E94EE18F1
:1035D000882309F4B3CF8091270190E0019687708A
:1035E000992780932701A4CF82E00E94500983CFBE
:1035F000A5E0B0E0EEEFFAE10C94A1208C019093ED
:10360000F1018093F001011580E21807C0F4802FCA
:103610000E94BA09C8010E94960A9801205E3109E9
:103620002830310518F00115110531F40E94A9095F
:103630002596E4E00C94BD200E949409F9CF80EF18
:1036400089838A831B820E949D058160782F9D83D8
:103650008C8349815A816B818D810E944F1AE8CFFA
:10366000A5E0B0E0E6E3FBE10C94A3209093F10128
:103670008093F001811520E2920730F40E94C70A7E
:103680002596E2E00C94BF2080EF89838A8381E055
:103690008B830E949D058160782F9D838C83498157
:1036A0005A816B818D810E944F1AEACF78941F92C4
:1036B0001FB61F9211248F939F93AF93BF93809156
:1036C0000D0290910E02A0910F02B091100201968E
:1036D000A11DB11D80930D0290930E02A0930F02C5
:1036E000B0931002BF91AF919F918F911F901FBE19
:1036F0001F901895CDB7DEB768970FB6F894DEBF68
:103700000FBECDBF84B7806884BF84B7806884BF94
:103710000E949D0590936201809361018DE696E081
:103720009093BF008093BE000E94E10F85B7886030
:1037300085BF8BB780688BBF8BE48093DB0280935F
:1037400010038093E7028AE58093DA0280930F03E7
:103750008093E6028B9A80E0815009F0AFC08B988D
:1037600078948BE083BF8AEF8CBF82E089BF0E9490
:103770009A0F811102C00E94E20E08EA10E0F801DF
:1037800081918F018F3F11F00E946F06F0E00E3A99
:103790001F07A9F70EEA10E0D8018D918D018F3F28
:1037A00011F00E946F06B0E00D3B1B07A9F78CE0FB
:1037B000E4E5F1E0DF01282F1D922A95E9F7E4E323
:1037C000F1E0DF011D928A95E9F790E080E00E9428
:1037D000FF20883E9E4F21F40E949A0F811102C063
:1037E0000E943A1182E090E00E94F720809342010B
:1037F0000E94B30F90934101809340010E946D108D
:10380000EFE3FCE93197F1F700C000000E946D1072
:103810008091540181FF08C06FEF7FEF90E080E05E
:103820000E9422210E946F0583E090E00E94F72011
:103830000E948F0981E690E090930A02809309022A
:10384000FFEF20E742E0F15020404040E1F700C0A8
:1038500000005AE0252ECE0101962C0133243A9423
:1038600062E3862E912C8091F502109160018823ED
:1038700069F11092F5020E949D0590936201809378
:103880006101112309F479C3109260010E94C10FF4
:103890000E94EF0580916001882309F46EC30E94A5
:1038A0006D10E4E5F1E081919191892B09F040C31D
:1038B000A0E6B1E0AE17BF07B1F7D5CFA895AFE945
:1038C000BFE01197F1F700C0000046CF1111E7CF1C
:1038D00080916101909162010E948205069708F42F
:1038E0004CC381E080936001DACF7F5FEE0CFF1C58
:1038F0007F3009F067C30F5F1F4F0630110509F0D5
:1039000052C3388A398A1A8A0E949D058160782FAD
:103910009C8B8B8B488959896A898C890E944F1AA4
:1039200078C38C3009F4E2C058F5843009F4BBC088
:1039300058F4823009F46FC008F0A1C0813009F456
:1039400064C03092AB027DC0863009F4CCC008F46C
:10395000BAC08B30B1F78091EE019091EF01892BC5
:1039600009F46FC00E94520C2FEF41EE84E0215009
:1039700040408040E1F700C000000E946F0561C038
:10398000803109F4E9C0A8F58E3009F4B7C008F415
:10399000B1C08091EE019091EF01892B09F451C0E3
:1039A000E090AE02F12C4DE1E416F10408F049C0BC
:1039B0000091AC021091AD021027012710275BEA9D
:1039C000C52E52E0D52EE00EF11EC801895B9C4F3A
:1039D000E016F106B1F1093B110528F4D601149661
:1039E0006C910E940521BFEFCB1ADB0A0F5F1F4FBE
:1039F000ECCF823109F4B5C008F4B1C0833109F4C9
:103A0000DEC08E3F09F09DCF77C31092AC0289E0F3
:103A10008093AD0216C08091AC02823009F4A2C23C
:103A20008330A1F0813009F08CCF0E9491050E9473
:103A30008C206093AD027093AE028093AF0290939E
:103A4000B0020E94520C109299020DCF8091EE01AB
:103A50009091EF01892BA9F3E4E5F1E0ABEAB2E044
:103A600080819181329612969C93129713968C9333
:103A70001397129621E0E036F20791F7E2CF80919A
:103A8000AC02823009F05DCF6091AD027091AE0260
:103A90008091AF029091B0020E948C2086E290E06B
:103AA0000E940521CECF4091AE026091AD0280917F
:103AB000AC020E94F20E9827892798279093B002B3
:103AC0008093AF02BECF2091AF023091B002322777
:103AD000232732274091AE026091AD028091AC0263
:103AE0000E942D0EAECF0E94880EABCF80E1809356
:103AF000AC02A7CF1092AC0289EB8ACF0091AE0244
:103B000010E00D31110508F09CCFE090AC02F09070
:103B1000AD02FE24EF24FE246BEAC62E62E0D62E10
:103B200005551D4FC701895B9C4F0C151D0509F4F8
:103B300088CF49EBE416F10460F40E94F720D60127
:103B400014968C93FFEFEF1AFF0A2FEFC21AD20AD6
:103B5000E9CFF6011482F6CF0E941D0E72CF84E0E9
:103B6000C6CF0091AE0210E00D31110508F069CF0B
:103B7000E090AC02F090AD02FE24EF24FE244BEA6C
:103B8000C42E42E0D42E05551D4FC7018796C0169E
:103B9000D10609F456CFE0EDEE16E2E0FE0660F441
:103BA0000E94F720D60114968C93FFEFEF1AFF0ABC
:103BB0002FEFC21AD20AE9CFF6011482F6CFE090B5
:103BC000AE02F12C4DE1E416F10408F03ACF009179
:103BD000AC021091AD02102701271027003D82E0B2
:103BE000180708F02ECF80ED92E0801B910B8E1508
:103BF0009F0508F426CFD8019796B88FAF8B809198
:103C0000EE019091EF013701600E711E892BA1F535
:103C10006801B1E0CB22DD2400FF0EC0C80186960A
:103C20000E94F7209091AF02892798278927811554
:103C30009C4511F43092AF02570160FE17C0F1E0CD
:103C4000AF1AB108C50181559D4F9E8B8D8B8F8911
:103C5000988D8E0D9F1D0E94F720AD89BE899C9185
:103C600081159C4519F4ED89FE893082F601E555F0
:103C7000FD4FCA14DB0428F03BEAE32E32E0F32EBA
:103C800019C09481858181159C4511F43482358257
:103C900042E0C40ED11C3296ECCF003DA2E01A07E0
:103CA00020F4F70164810E940521FFEFEF1AFF0A5B
:103CB0000F5F1F4FC80187966016710671F7C1CE5E
:103CC00088E0EFE6F0E0D20101900D928A95E1F7ED
:103CD000ABEAB2E0E0E21D92EA95E9F785E0809375
:103CE000AB0288E0F201AFEAB2E001900D928A9552
:103CF000E1F7A7CE84E28093AB0283E08093AC022D
:103D00001092AD021092AE029CCE8091AE02682F4E
:103D100070E0762F66278091AD02860F972F911D58
:103D2000092E000CAA0BBB0B25E0880F991FAA1FB8
:103D3000BB1F2A95D1F7AC01BD01405E5F4F6F4FAD
:103D40007F4F481759076A077B0708F47ACE8432F9
:103D5000F3E09F07A105B10508F073CE453223E0DB
:103D600052076105710520F044E253E060E070E025
:103D7000481B590BBC016C5F7E4F8BEA92E00E949E
:103D8000CA205FCE4AE150E06FEF70E081EB92E035
:103D90000E94E0208091EE018093AB020093AC0280
:103DA0001092AD021092AE0283E08093AF028EE0DB
:103DB0008093B00246CE81E090E09093F30180932F
:103DC000F20190925301809252010E949D059093BE
:103DD00051018093500135CE012B89F1F0905401AF
:103DE00000915A0110915B01809150019091510115
:103DF0000E9482058536910568F116FB002700F9BF
:103E0000002341F1F0FE26C00E949D0590935101D0
:103E100080935001809152019091530101979093AA
:103E2000530180935201892B51F41092F3011092A7
:103E3000F201A1E0B0E0B093EF01A093EE01809118
:103E4000EE018093AB028091F2018093AC028091ED
:103E50005201DECD9092530180925201F0CF109228
:103E6000EF011092EE01EDCD40E250E06FEF70E017
:103E70008BEA92E00E94E020E4CD8091AD02853093
:103E800071F0863041F18111DCCDEBEAF2E020E205
:103E900011922A95E9F748E04093AD02D2CD6091A6
:103EA000AE02D201E22D1D92EA95E9F78FEF68305C
:103EB00058F4629DB001112469507D4F4AE050E0F2
:103EC000C2010E94E72080E08093AB028AE0F20109
:103ED000ACEAB2E00ACF6091AE028AE0EFEAF2E02B
:103EE000D20101900D928A95E1F78B819C81811519
:103EF000FCE59F0741F42091EE013091EF01232B67
:103F000011F490E080E09C838B838FEF683058F44D
:103F1000629DB001112469507D4F4AE050E0C2011A
:103F20000E94282180E08093AB020E94E10F89CD9E
:103F3000F89421B3939A822F8C6081BB92B33CE0BA
:103F4000932792BB4FE788E391E041508040904037
:103F5000E1F700C0000082B3832782BB21BB9398A6
:103F6000789481CC86E290E00E94F7201092AD0216
:103F70001092AE021092AF021BCF0E94DF0A809116
:103F8000A302882309F491C08091DA0284FF8DC0D6
:103F90000E946D1081110E949105E4E5F1E0A3E417
:103FA000B1E010E000E0602F819191912D913D9161
:103FB0002817390709F49FCC2827392770E0EE2409
:103FC000E394F12CA9014E215F21452B09F48DCCFE
:103FD0007B876C879C012E213F2191E0232B09F4E4
:103FE00090E09D870E949D058160782F9F878E8736
:103FF0004B855C856D858F850E944F1A000F111FC0
:10400000F801ED5BFE4F80819181E826F926F1826F
:10401000E0828091030290910402892B09F43EC052
:104020004091F8015091F9016091FA017091FB0102
:104030002FB7F89480910D0290910E02A0910F027B
:10404000B09110022FBF841B950BA60BB70B4091AC
:10405000F4015091F5016091F6017091F701841718
:104060009507A607B707D0F080910302909104024C
:104070000E94C70A10920402109203021092F801E3
:104080001092F9011092FA011092FB011092F401C2
:104090001092F5011092F6011092F7010E94EF05BF
:1040A00090914F01891380934F010E94A60C0E94AA
:1040B000DF0A8091A302882309F4D5CB8091E60220
:1040C00084FFD1CB80919902803209F0CCCB009152
:1040D000F2011091F3018091AB020115110509F471
:1040E00020CC8E3F09F0ADCC8091AC02833020F023
:1040F0008550833008F0A5CCE091AC02EE3008F09A
:10410000A0CCF0E0E35BFE4D0C948620EE0FFF1F89
:104110000590F491E02D099469279627692778275F
:104120008727782708952F923F924F925F926F9240
:104130007F928F929F92AF92BF92CF92DF92EF9237
:10414000FF920F931F93CF93DF93CDB7DEB7CA1BB8
:10415000DB0B0FB6F894DEBF0FBECDBF09942A88E3
:10416000398848885F846E847D848C849B84AA848B
:10417000B984C884DF80EE80FD800C811B81AA8118
:10418000B981CE0FD11D0FB6F894DEBF0FBECDBFE3
:10419000ED010895FB01DC0102C005900D92415034
:1041A0005040D8F70895FB01DC0104C08D910190C7
:1041B000801921F441505040C8F7881B990B08958D
:1041C000DC0101C06D9341505040E0F70895DC01DF
:1041D000CB01FC01E199FECF06C0FFBBEEBBE09A2C
:1041E00031960DB20D9241505040B8F70895E199C3
:1041F000FECF9FBB8EBBE09A99278DB30895A8E1AF
:10420000B0E042E050E00C94E920262FE199FECF87
:104210009FBB8EBBE09A01970DB2021631F02DBB09
:104220000FB6F894E29AE19A0FBE08950396272FED
:104230000E9406210E940521252F0E940621242F7D
:104240000C9406210196272F0E9406210C9405212B
:10425000DC01CB0103C02D910E943321415050401D
:10426000D0F70895262FE199FECF9FBB8EBB2DBBC3
:104270000FB6F894E29AE19A0FBE01960895F89469
:10428000FFCF93149314CC14CC148C15FD14FD148F
:10429000FD14A615111620162016601E7A1E851E06
:1042A000211D211DC21EDB1EEC1E2F1F341F211DD0
:0642B000211D211D3D1F30
:1042B600016C05D50C6B05A10C9C0C6A05FF5A3FD9
:1042C600B8938073A1B69C818283E200E900EA007C
:1042D600B500B600B700CD008301CC008A0192017B
:1042E60094012102230224022502260227022A0221
:1042F600B300B4006F007000323334353637000136
:0E43060005060730319796959493929190009A
:00000001FF
