:100000000C94B6030C94D3030C94EE030C94D3031A
:100010000C94D3030C94D3030C94D3030C94D30308
:100020000C94D3030C94D3030C949C220C94D30310
:100030000C94D3030C94D3030C94D3030C94D303E8
:100040000C94D3030C94D3030C94D3030C94D303D8
:100050000C94D3030000000000000000000000002A
:100060000000000000000000000000000000000090
:1000700000000000000000007E0F00D4FFFFFFC75B
:100080000000007800000000000000002A2B28007B
:100090000000000000000000000000000000002937
:1000A000000000002C1E3420212224342627252E77
:1000B000362D3738271E1F202122232425263333AF
:1000C000362E37381F0405060708090A0B0C0D0EDB
:1000D0000F101112131415161718191A1B1C1D2FA7
:1000E0003130232D350405060708090A0B0C0D0EC7
:1000F0000F101112131415161718191A1B1C1D2F87
:100100003130354CFD377A585A000004E6D6B446F3
:100110000200210116000000742FE5A3E009C202CD
:10012000E25D003D8889C65436C3174FE4E4696632
:10013000367F2DC2352A9120D3032BA13872C952A4
:10014000549FF2039F83BD6D2384EFFCE1DC71219A
:100150005945D2787B1F97CE80D4719955EC15C242
:1001600010539D6570DBD9094E2BD157FEF740F92E
:100170003EA7225220ACD60E096F40CACDAB11DD8E
:10018000AD8647A264EFC41B26C541F1D1B10FDA99
:10019000E94FDF3D37E557C74900B51E7BAF3C98B7
:1001A00099560C8BC821A7CDB2F34B248E0D86C96E
:1001B000864DA564A1C24B29ACAE10EB26B236EE3B
:1001C00047F0CD15B445A8E38745C49DAFD80A16BE
:1001D00052408450A90591BBFEC2DD6C1E7D2C915E
:1001E00087A030B974E4925535EFADAA0B0B9CD9BA
:1001F000970F3D4D4EB89F50E89BDD5F962280D60D
:1002000048F698BF87C80FD099167E8CBB33E2178B
:10021000C43FE362B9BDEDAC28F057CE475A5A96B9
:100220003CAA2A55356B9F3F3461448BD4C5342892
:10023000F50EF7A067AF5E159BC43EAB244958741A
:10024000595F32E3B42D3381A81A8DEDFC6678AF87
:1002500045C2C064021CB4D5ABC4C5129D6FE65F35
:1002600005A93BDF32A618C71B3E8200654B1B96D3
:1002700047A79EA6FDCA9F4BA635BD8905D9901CF0
:1002800049E6B0BF68BF8A42316EA13BF006FC2E42
:10029000C20B55271FF7196C885ACE90912F652EE7
:1002A000F8DC61593D7B4376716E1D69DD0A2DDAFC
:1002B00060803652789B4A9900EBE8538C8AC1FFE4
:1002C00061E297BA24B1FECC7BAB205691B3794D55
:1002D000C7953DD79BA919D9DA2BC10127B252DFA7
:1002E0006954F26BE13505C5E151C7A7E0CCD1A255
:1002F00009731822642396C98C8D64768CAB6B507D
:10030000CCFDCC715CA3988FBF2072870D40A20EEC
:100310004E58BE6E307BB4C501EEDDB661813E370E
:100320006A7C1EE83D2F3BE349FD43194122DC0076
:100330007C610383A4EF14E1488161724063645FD0
:10034000DB4905476446401C0F0011DFA37546B921
:10035000A26F0C57EDDC411069AAEE9ED88AAAFA6A
:10036000322160B8C90A2D9A200C73B5B0FA2898CA
:100370006E9284EE53BC44F3C81D43FB22DA1CF09A
:1003800060BEE5637F9F8C07BF6B4BE90571034A35
:1003900084A82FE8B2C298C1FB72CC6157B76F7ABC
:1003A000E2949DB2156FAEB4FB69421887DC432F0F
:1003B0003389523D29B70CCA9EDAF60B22F9C5F1F2
:1003C000090E0F0B72303C5BCC6B8E0110BC7B4373
:1003D000FC89B7506127D51BB272B63A3D7C148FA9
:1003E000A0B28CCE3A5197845611CC6AA79D17D5EE
:1003F000BA04FA118721F2B6916FAB78C2CF80AD03
:100400002E955357020000005ACFBD05B10624DCDB
:100410000001FE05C3130000057FB55EB1C467FB94
:10042000020000000004595A3A003B003C003D0025
:100430003E003F00000040004100420043004400F5
:1004400045000000680029001E001F002000210058
:100450002200230024002500260027002D002E0066
:1004600031004C002B0014001A0008001500170082
:1004700000001C0018000C00120013002F003000B8
:100480002A00390004001600070009000A000000D5
:100490000B000D000E000F00330034000000280098
:1004A000E1001D001B00060019000500000005000A
:1004B00011001000360037003800E5000153E0005D
:1004C0000000E20000002C00E300000000000151E9
:1004D0000000E60000000000E40000000100010050
:1004E0000100010001000100000001000100010005
:1004F0000100010001000000E85C2900010001008A
:100500000100005C01000100010001000100010088
:100510000100010031004C002B000100010001002E
:100520000100010000000100010052000100010073
:10053000010001002A003900010001000100010052
:10054000010000000100500051004F0001000100B7
:1005500000002800E100010001000100010001008D
:100560000000010001000100010001000100E500A0
:100570000100E0000000E20000002C00E3000000A9
:10058000000001000000E60000000000E4000000A0
:100590000100010050029E11D11100000200020072
:1005A0004C029E11D11100000300010051029E1166
:1005B000D11100000400020036029E11D111500733
:1005C0000500010052029E11D11100000600020038
:1005D00038029E11D1110000070002004E029E1148
:1005E000D11100000800010053029E11D11100003A
:1005F0001200020054029E11D111000013000200EB
:1006000056029E11D11100001400010058029E11E3
:10061000D1110000150000000000D6060C130000E8
:1006200005010980A101850319012AB700150126DA
:10063000B700950175108100C0050C0901A1018565
:100640000419012AA002150126A002950175108146
:1006500000C00660FF0961A1010962150026FF00C4
:100660009520750881020963150026FF0095207505
:10067000089102C005010906A101050719E029E753
:100680001500250195087501810295017508810302
:100690000507190029FF150026FF0095067508813A
:1006A0000005081901290595057501910295017547
:1006B000039103C01C037600690061006C003A00DE
:1006C00066003600340063003200620033006300CD
:1006D00000000C0350006F007000700079000000F3
:1006E00018034A00610063006B0020004D006500A4
:1006F000720068006100720000000403090409022E
:100700005B00030100A0FA090400000103010100DD
:1007100009210101000122400007058103080001B1
:100720000904010002030000000921010100012267
:1007300022000705840308000107050403080001DF
:100740000904020001030000000921010100012247
:1007500032000705830308000112011001000000A8
:10076000084F1B01000100010203010011241FBEFC
:10077000CFE5D8E0DEBFCDBF23E0A2ECB0E001C002
:100780001D92A837B207E1F710E0A0E6B0E0ECE870
:10079000F3E502C005900D92A23CB107D9F70E9483
:1007A000C0220C949D290C940000A82FB92F80E042
:1007B00090E041E050EA609530E009C02D91822739
:1007C0009795879510F084279527305EC8F36F5F63
:1007D000A8F30895EADF8D939D930895CF93CFB743
:1007E000CF93DF93C395839BE9F7839B10C0839BD3
:1007F0000EC0839B0CC0839B0AC0839B08C0839B55
:1008000006C0C0915203C395C09352038EC06F932C
:10081000C0915103DD27CA5ADC4F2F9365E5839BB6
:1008200003C02F916F91E1CF0F931F934F9320E05F
:1008300040E15F9300B30C7003FB27F93F9350E056
:100840003BE039C01C7040642F77012F5F5F1EC0F2
:10085000406810B31C702F7752501FC0406400B323
:100860002F770C70D1F15F5F00C023C0406210B3DE
:100870002F771C7091F15F5F00C025C00C701027AE
:10088000515012F45D5F0000115027952C3F10B3BA
:10089000C8F61C700127015027952C3FC8F6422747
:1008A000499300B30C7010274F73115027952C3FBC
:1008B000A8F64695469510B31C7079F001270150B3
:1008C00027952C3F98F66B5A60F3315000B3B0F681
:1008D00000C010E81ABF00271CC03B503195C31B55
:1008E000D04010E81ABF0881033C21F10B3411F10C
:1008F00020914F031981110F1213EDCF4A81441F2C
:10090000093679F10D3211F0013E29F74F7009F0E7
:10091000042F009355033F915F914F911F910F91C9
:100920002F916F91CAB7C7FD5DCFDF91CF91CFBF38
:10093000CF91189520915503222369F31091530309
:10094000112309F049C034300AF448C030935303EE
:1009500020935003109151033BE0311B309351031E
:100960003DC0009153030130BCF50AE54F7049F4D6
:100970003091720034FD33C000937200CCE2D3E0BA
:1009800032C0433059F0443091F03091370334FD98
:1009900026C000933703C8E3D3E025C030916C0331
:1009A00034FD1DC000936C03CDE6D3E01CC0309134
:1009B000430334FD14C000934303C4E4D3E013C0E5
:1009C000052710E000C0000002BB1AC0052710E098
:1009D000221F1DC010E021C04AE502C032ED432FA6
:1009E000C4E1D0E032E011B31C60939A02B311BBB2
:1009F0005CE020E865E320FF052702BB27951795FB
:100A00001C3FF0F66695B8F7B1F720FF052702BB4B
:100A1000279517951C3FD0F62795179517FF0527A3
:100A200000001C3F02BBB0F629913A9519F7037FED
:100A300010915403110FC651D04002BB11F0109316
:100A40004F0310E81ABF086011B3137F402F437F94
:100A500054E05A95F1F702BB11BB42BB5CCFFC01DD
:100A60008381833089F130F48130F1F0823021F1DB
:100A700080E00895813209F450C08232C9F72481A0
:100A800035812130310509F466C02115310509F49D
:100A90005AC02230310561F780E296E0909300035E
:100AA0008093FF0282E3089589E597E09093000325
:100AB0008093FF0282E108958EEF96E09093000309
:100AC0008093FF028BE5089582818130B1F0882305
:100AD00061F08230D1F0833059F684EB96E0909348
:100AE00000038093FF028CE108958AEF96E09093D3
:100AF00000038093FF0284E0089580EE96E09093D7
:100B000000038093FF0288E1089582ED96E09093C0
:100B100000038093FF028CE008958281813081F090
:100B2000882331F0823009F0A3CF89E497E002C036
:100B300080E197E0909300038093FF0289E008959D
:100B400089E297E0F7CF84E796E0909300038093E3
:100B5000FF0280E4089522E536E0309300032093FD
:100B6000FF020895089508958091FA02089588E19A
:100B700098E00FB6F894A89581BD0FBE91BDA895D9
:100B8000F894D8E0CEE528E3299320E0299314BE19
:100B9000FFCF08959C014FB7F89480916302909124
:100BA0006402A0916502B09166024FBF821B930B55
:100BB00008952FB7F8946091630270916402809158
:100BC0006502909166022FBF08952FB7F894809127
:100BD000630290916402A0916502B09166022FBFFA
:100BE00008958091270382FD04C0909125039111FF
:100BF00018C082FF04C080912403811112C081E0DB
:100C000080932503809324030E94E505909323039A
:100C10008093220380912103882311F0C49A0895C0
:100C2000C49808959C01FC0132969FEF80E04191A9
:100C3000461751F09F3F19F4411101C0982F8F5F63
:100C40008630A9F79F3F09F40895290F311D97FDBC
:100C50003A95F90162830895209161023091620210
:100C60002817390771F09093620280936102E09136
:100C70005F02F0916002309721F00084F185E02D51
:100C80000995089520915D0230915E022817390779
:100C900071F090935E0280935D02E0915F02F091AB
:100CA0006002309721F00680F781E02D09950895C4
:100CB000E0915F02F0916002309729F00190F0819D
:100CC000E02D0995089580E00895CF93DF93EC011E
:100CD00040912B0250912C0260912D0270912E02B6
:100CE0002FB7F8948091630290916402A0916502FD
:100CF000B09166022FBF841B950BA60BB70B843FE8
:100D00009140A105B10518F580912B0290912C021C
:100D1000A0912D02B0912E02809327029093280279
:100D2000A0932902B0932A0284EF91E0A0E0B0E002
:100D30008093230290932402A0932502B09326026D
:100D4000D0933302C0933202DF91CF9108950E9475
:100D5000D90560932702709328028093290290930B
:100D60002A0282E390E0A0E0B0E0E2CFFC018481BF
:100D7000862351F492819923B9F06923808583FFFA
:100D800005C081E061110FC080E00895892F8F7048
:100D900092959F70982B862F8F7062956F70682B3D
:100DA00081E09613F1CF089581E0FDCFB0E0A0E09F
:100DB000ECEDF6E00C94EA288FEF9FEF44305105FC
:100DC00008F469C04091FC0141FB882780F990E05C
:100DD000880F991F42FB002700F910E0000F111F38
:100DE000000F111F802B912B40FBCC24C0F8D12C7D
:100DF0008C299D2943FB222720F9C22FE0E0DE2F1A
:100E000053E0CC0FDD1F5A95E1F78C2B9D2B44FB53
:100E1000AA27A0F9B0E0E4E0AA0FBB1FEA95E1F72A
:100E20008A2B9B2B45FBEE27E0F9F0E0A5E0EE0FC7
:100E3000FF1FAA95E1F78E2B9F2B46FB222720F957
:100E400030E0B6E0220F331FBA95E1F7822B932BE7
:100E500047FB222720F930E03695322F222737959D
:100E60002795822B932B2091FD01322F3170F32E89
:100E7000E82EF92A26952170B22EBB0CA82EBF2889
:100E8000C501BB0CAA0BBB0BFB0180839183A28322
:100E9000B38390E080E0CDB7DEB7EAE00C9406299A
:100EA000809136029091370290936E0080936D008E
:100EB000089580E00895E82FE295EF70F0E031A901
:100EC000282F2F7081E090E001C0880F2A95EAF763
:100ED000982F9095932391AB92A9892B82AB08957B
:100EE0009091FC0192FF06C0282F28712830F9F458
:100EF000877F846093FF06C0282F28712831F1F482
:100F0000877E84612091FD0120FF06C0382F387153
:100F10003830D9F4877F816021FF06C0282F2871DF
:100F20002831D1F4877E816194FD877E0895282F32
:100F300024712430F9F68B7F8860DCCF282F247150
:100F4000243101F78B7E8861DDCF382F317131304C
:100F500019F78E7F8860E0CF282F2171213121F78A
:100F60008E7E8861E1CFCF93DF93EC0182389105CB
:100F7000A9F1D8F58133910509F496C048F5893275
:100F8000910509F48AC08A9709F495C0C11522E534
:100F9000D20708F0B6C0C11531E5D30708F026C165
:100FA000C83ED10508F09CC0C03ED10560F5C83AE6
:100FB000D10508F087C0C53AD10508F0EFC0C130AF
:100FC000D10509F12097F9F0C430D105E0F440C013
:100FD0008533910509F45AC0C997C1F68091FC0187
:100FE000837089F0C0EED0E00EC0833E910599F188
:100FF00070F4803E910501F1823E910539F68091B1
:10100000FC0182FD21C0CE01DF91CF910895863E83
:10101000910561F1873E910571F1843E910509F0DA
:10102000B5CF8091FD0181FFEECF8091FC01C7EE2D
:10103000D0E084FD0DC0E7CF8091FC0180FD07C1A9
:101040009091FD0190FFDFCFC3EED0E084FFDBCFB6
:10105000D0E0C0E0D8CF8091FC0182FDFBC0909130
:10106000FD0190FDBFCF84FFCECFF2CF8091FC0178
:1010700083FDDDCFC8CF8091FC0183FDEEC0909150
:10108000FD0191FFF0CFC4EED0E0BDCF8091FC0117
:1010900085FFB9CFC9E2D0E0B6CF8091FC0185FFD2
:1010A000B2CFC5E3D0E0AFCF8091FC0186FFABCFDC
:1010B000CAE2D0E0A8CF8091FC0186FFA4CFC1E3B3
:1010C000D0E0A1CFCF3BD10518F6C85AD0E0CC0F65
:1010D000DD1FC258DF4F0990D881C02DD46493CF53
:1010E000C11540E5D40708F064C0C11580E4D807F5
:1010F00008F05CC0CE019A9581159F4108F483CF1A
:10110000A7CFC11536E5D30718F5C11545E5D407B6
:1011100008F084C0C11584E5D80708F07AC09C2F78
:10112000969596959E0123703327C115D34508F4F3
:1011300062C0C1E0D0E002C0CC0FDD1F2A95E2F70B
:1011400030E2939FC0011124C82BD92BDA685BCF02
:10115000C1158AE5D80778F4C11599E5D90708F0D3
:1011600068C0C11528E5D20708F472CFDC2FCC2760
:10117000C06FD06A48CFCE0190568115904208F0DA
:1011800067CF8D2F8F710E94700790E0982F88276E
:1011900088279F719C012C2BE90149C0C55AD0E0DA
:1011A000C558DF4FC881D0E0D0642DCFDF70D06A42
:1011B0002ACFCE01E4E096958795EA95E1F7837012
:1011C0002C2F26952695237040E2249F9001112410
:1011D000382B8C2F8370C1E0D0E002C0CC0FDD1F14
:1011E0008A95E2F7C22BD32BDC680DCFDC2FCC27FE
:1011F000C16FD06A08CFC1E0D0E002C0CC0FDD1FC4
:101200002A95E2F720E2929FC0011124C82BD92B26
:10121000EBCFDC2FCC27C46FD06AF5CE8C2F0E9489
:101220007007C82FD0E0DC2FCC27CC27DF71D0622D
:10123000EACE8C2F8F700E94700734E0D695C79548
:101240003A95E1F7CF709C2FEC01D069DCCEC9E371
:10125000D0E0D9CEC2EED0E0D6CEC6EED0E0D3CE2E
:1012600080913301882331F01092330110923201C2
:10127000109231010895CF93C82F8091FD0182FF14
:101280000CC0809133018C1741F00E94E5059093CA
:10129000320180933101C0933301CF91089580953D
:1012A0009091FE0198239093FE01089510923001D1
:1012B00010922F0110922E01089580913802909182
:1012C0003902892B89F00E94E50520913101309186
:1012D0003201AC01421B530B81E020913802309166
:1012E00039024217530708F480E081700895809115
:1012F000FE0190912A03892B8093C40080913301D1
:10130000882309F18091380290913902892B29F0C4
:101310000E945D0981110E9430098091C400909162
:101320003301892B8093C40020E086EC90E0FC011F
:101330003191CF0131112F5FF0E08C3C9F07B9F75D
:1013400021110E94300980912F0280959091C40054
:10135000892390913002892B8093C400E0915F0231
:10136000F0916002309731F00280F381E02D84EC3F
:1013700090E00995089580916F00877F80936F00BA
:1013800090912A039D7F90932A0384FF08C08F7E4B
:1013900080936F008091FE0182608093FE018091B6
:1013A0006F0085FF08C08F7D80936F008091FE01E4
:1013B00080628093FE010E9477090895E6ECF0E0D8
:1013C0009191891303C0DF0111971C9290E0EC3CCE
:1013D000F907B1F7089520912D019091FC0056E096
:1013E000291302C080E0089530E0529FF001539F1E
:1013F000F00D1124E350FF4F7181761306C0708108
:10140000781303C07281741304C02F5F3F4F27709D
:10141000E7CF81E00895452B39F0682381E06F3FE5
:1014200009F080E08170089581E0FCCF80912D016A
:101430009091FC00981301C008958F5F8770FACFD8
:10144000292F963078F58F3068F590E03FE0239FA4
:10145000800D911D1124682F677023E09695879564
:101460002A95E1F7FC01EE0FFF1FE80FF91FEE527E
:10147000FF4F50E040E080E0219130E0062E02C0B6
:10148000369527950A94E2F721703327042E01C080
:10149000220F0A94EAF7822B4F5F5F4F43305105CA
:1014A00059F7089580E00895292F963098F58F30E8
:1014B00088F590E03FE0239F800D911D1124282F97
:1014C000277041E001C0440F2A95EAF723E0969582
:1014D00087952A95E1F7FC01EE0FFF1FE80FF91F32
:1014E000EE52FF4F30E020E070E05191DF011197A4
:1014F000CB01022E02C0969587950A94E2F781707F
:1015000081958527842385278C932F5F3F4F233038
:10151000310559F7089592959F70963091F058F4DF
:10152000925F9F70923058F4803F19F030F4883EFB
:1015300030F481E008959A5FF4CF843FD1F380E0E6
:101540000895883EB0F3813FD1F7F3CF90E080E07B
:101550000E94420690E080E00E942C0610922A032E
:101560000E947709089580932B030E94A60A08958C
:1015700080912B03982F9670963021F488600E94FA
:10158000B30A0895877FFBCF21E030E001C0220F2E
:101590008A95EAF7209580912B0382230E94B30A53
:1015A0000895909130018095892380933001282FF0
:1015B000277091F4282F082E000C330B9217130676
:1015C00059F09091FD0192FF07C08595859585950D
:1015D0000E94C40A0E945609089521E030E001C02B
:1015E000220F8A95EAF780912B03822B0E94B30A7F
:1015F00008959091FD0192FF10C098E0899F90019D
:101600001124622B609330010E94ED0A0E94E505CF
:1016100090932F0180932E0108950E94ED0A089562
:10162000809334010E94A60A0895882341F0809592
:1016300090912A03892380932A030E9477090895B1
:10164000882339F090912A03982B90932A030E94C3
:1016500077090895882321F00E944F090E94770995
:101660000895882339F09091FE01982B9093FE0104
:101670000E9477090895882339F19CEF980F913AD9
:1016800028F40E94DE090E947709089590E2980FDD
:10169000983050F4877091E001C0990F8A95EAF76D
:1016A000892F0E944F09EFCF9BE5980F933028F4C4
:1016B00090E080E00E9442060895885A873120F425
:1016C00090E080E00E942C060895FF920F931F93F4
:1016D000CF93DF93F82E009134021091350201155B
:1016E000110509F449C0109233021092320210928F
:1016F0002F0210923002D8011696CD91DC919E01F6
:101700003A9521153F4108F4D07ED1E0C11101C0C6
:10171000D0E0D8011996ED91FC911A97309731F0ED
:101720001B966D917C9180E00995D823DD2339F0DB
:101730008CEF8C0F813A30F58C2F0E94DE09FF2050
:1017400099F0E0913402F0913502808584FD0CC05F
:1017500080913102882341F0808191819C01215048
:1017600031092C3A3D45A0F00E94770910923502CC
:101770001092340210923102C801CDB7DEB7E5E015
:101780000C940B290E9477098C2F0E943B0BD7CF1A
:101790000E946506E9CFCF93C82F8823A9F08CEF6C
:1017A0008C0F813A98F4E6ECF0E08CEC90E021911B
:1017B000C217B9F18E179F07D1F76C2F84EC90E018
:1017C0000E9412060E947709CF91089580E28C0F43
:1017D000883068F4C77021E030E001C0220FCA955C
:1017E000EAF78091FE01822B8093FE01EBCFEBE5BF
:1017F000EC0FE33040F4F0E0E558FF4F808190E0DB
:101800000E944206E1CFC85AC731F0F6EC2FF0E053
:10181000EE0FFF1FE258FF4F808191810E942C063E
:10182000D3CF8C2F0E94DE090E947709C6CF9C017E
:101830003A9521153F4150F5FC01EE27F170BC01AE
:1018400066277270AC01442754709C0122273870BF
:1018500094FF0EC080E1EF2B09F480E0672B09F0C4
:101860008062452B09F08064232B89F080680895FD
:1018700081E0EF2B09F480E0672B09F08260452BB3
:1018800009F08460232B19F08860089580E00895A2
:10189000CF93DF93EC010E943B0BCE010E94170C0B
:1018A0009E01205E31092830310510F0CD2B29F43E
:1018B0000E942A0BDF91CF9108950E94150BFACF59
:1018C000CF93DF93EC010E94170C9E01205E31093B
:1018D0002830310510F0209741F40E94310B8C2FF5
:1018E0000E94CB0BDF91CF9108950E94200BF7CF80
:1018F000662329F020912A03226020932A039C0169
:101900003056211540E2340720F0305E2115304179
:1019100008F499270E94600C0895CF93DF9380917B
:101920005303835087FD14C090915103CCE0D0E065
:10193000C91BD109CA5ADC4F90915003903108F06D
:101940006BC0883009F453C01092EF021092530319
:101950008091720084FF3EC0809171008F3FD1F171
:10196000C82F893008F0C8E0982F9C1B9093710015
:1019700090912C0328E8922790932C038823E9F078
:101980008091FF02909100032091FE0226FF06C184
:10199000FC012C2FADE2B3E034913D933196215000
:1019A000D9F79C012F5F3F4F8FEF8C0F820F932F42
:1019B000911D909300038093FF026C2F8DE293E0C2
:1019C0000E94EA03CC5FCC3019F08FEF8093710056
:1019D000C093720084E190B39C7031F48150D9F7C8
:1019E0001092540310924F03DF91CF91089580918C
:1019F000EF02893108F0A8CFE82FF0E0EF5FFC4F4D
:101A00009E01285F3F4F999191932C173D07D9F77D
:101A1000885F8093EF029ACF9D3209F0A3C088308F
:101A200009F094CF83EC80932C038AE580937200B5
:101A30001092FE028881807609F447C0803229F531
:101A40008981813099F48C819D81892BF1F481EF1A
:101A500092E0909300038093FF0288E09F819111B0
:101A600031C09E81981770F5892F2CC0823041F4C7
:101A700080EF92E0909300038093FF0281E0EECF2D
:101A80008A3029F48B818093F00280E0E7CF89309F
:101A9000E1F78A819B818115924069F48C819D8157
:101AA000892B49F481E08093FD028E819F81909380
:101AB000FC028093FB02888187FF52C08E8190E8F0
:101AC0009093FE028093710041CF2A8110923503DA
:101AD000998191110AC01092360325E333E082E028
:101AE000309300032093FF02B9CF953029F420935F
:101AF000540325E333E0F4CF9630C1F49B81913059
:101B000049F4CE010E942F0590E49093FE028F3F8E
:101B100091F2A4CF9230A9F3933099F3913289F3E3
:101B2000923279F390E49093FE0298CF983089F046
:101B3000993019F42093F902DCCF9A3071F09B3080
:101B4000C1F69BE49093380390936D039093440304
:101B5000D0CF29EF32E081E0C3CF25E333E0FBCFE4
:101B60008FEFADCF8091FE0287FFF0CE8091FB0218
:101B70009091FC02892B71F08091FD02813051F42B
:101B800088818093FA021092FC021092FB0210925C
:101B90007100DCCE8EE180937200D8CEDC012C2F58
:101BA000EDE2F3E03D9131932150E1F7FACE1F933E
:101BB000CF93DF93E82F792F162FEA01888184FFD6
:101BC0001CC0298188E828272983CE010296DC01E0
:101BD0002E2F372F512F5E0FF90121912D939F0149
:101BE000452F4E1B1416C4F3612F0E94EA031C5F9D
:101BF0001883DF91CF911F9108958AE58883E5CFFF
:101C0000CF93DF93C1E0D3E08091430384FF19C0F9
:101C100043E453E068E0CE010E94D70D289683E0AC
:101C2000C132D80789F78091430384FF0DC043E494
:101C300053E060E090E080E00E94D70DDF91CF910B
:101C400008950E948D0CE0CF0E948D0CECCF9091F6
:101C5000EE02981307C02091EC023091ED02261796
:101C60003707B9F08093EE027093ED026093EC02B7
:101C70008093E9027093EB026093EA0280916C0317
:101C800084FF07C04CE653E063E089EE92E00E94D7
:101C9000D70D0895BC0184E00E94270E0895BC0171
:101CA00083E00E94270E0895CF93DF93CAE0D0E02F
:101CB0008091370384FF1CC08091E7029091E80275
:101CC000981799F028E0829FC001112447E353E060
:101CD00068E089599D4F0E94D70D8091E70290E0FE
:101CE00001968F7099278093E702DF91CF91089535
:101CF0000E948D0C8FE99FE00197F1F700C0000072
:101D00002197B1F6F2CFCF93DF93EC01A091E802D7
:101D1000B0E0CD0101968F7099272091E702281736
:101D200079F093E0AA0FBB1F9A95E1F7A959BD4F2F
:101D300098E0FE0101900D929A95E1F78093E802F8
:101D40000E948D0C0E94540E88E0FE01A1EFB2E0CB
:101D500001900D928A95E1F7DF91CF910895019757
:101D600008F40895EFE9FFE03197F1F700C00000B3
:101D7000F6CFB0E0A0E0EFEBFEE00C94ED287C01A4
:101D80008B01D42E80916F0082FF8CC0C091210204
:101D9000D0912202CE15DF0521F0E114F10409F003
:101DA00081C080916F008B7F80936F0081FD73C035
:101DB00080911F0290912002A801481B590B81E0DD
:101DC00020916D0030916E004217530708F480E0B7
:101DD0008170F82E80916F00F0FA81F980936F0086
:101DE000FE0183E0F695E7958A95E1F7EE71FF270E
:101DF000E150FE4F20813181AE014F70552781E0C7
:101E000090E002C0880F991F4A95E2F7FF2009F47D
:101E100044C0822B932B918380838091FE0181FFAC
:101E200008C080916F00806180936F0082E00E9403
:101E30004F098091FE0185FF08C080916F0080628C
:101E400080936F0080E20E944F096F2DCE010E94A7
:101E5000780CDD2031F08091510285FF02C086FFB1
:101E60003BC080915402909155020E94AF0E809128
:101E70002102909122029C013056211540E2340744
:101E800020F0305E2115304108F499270E94480C5B
:101E90000E94BB091DC081E09BCF80959095822355
:101EA0009323B9CFC701992797013056211540E2F6
:101EB000340728F0305E2115304108F0C7010E9438
:101EC000480C80912102909122028E159F0501F30A
:101ED0001093200200931F02CDB7DEB7E7E00C9409
:101EE00009291F93CF93DF93182FC0915602D091E9
:101EF0005702893321F0C0915402D0915502812FAD
:101F00000E94CB0B209739F4812F0E943B0BDF916D
:101F1000CF911F9108958FE99FE00197F1F700C0DD
:101F200000002197EFCF0F931F93CF93DF93C42F20
:101F3000D22FFC0182818823A9F040935C020E9489
:101F4000E50590935B0280935A02C77081E001C05F
:101F5000880FCA95EAF70E94310BDF91CF911F914C
:101F60000F91089510915C02141336C080915A02AB
:101F700090915B020E94CA0520914E0230914F025F
:101F80008217930748F5C0E2CD0F1D17B9F080E224
:101F9000810F883040F4177081E001C0880F1A95D6
:101FA000EAF70E942A0BC83048F481E09D2F977011
:101FB00001C0880F9A95EAF70E94310B802F0E948A
:101FC000710FC83050F6D77081E001C0880FDA95E4
:101FD000EAF70E942A0BC1CFC77081E001C0880FC9
:101FE000CA95EAF7F6CFB0E0A0E0E9EFFFE00C9485
:101FF000EA28EC018AE0A82E2881222309F48FC068
:102000002130C9F599818A81913021F422960E946C
:10201000710F05C0923029F422960E94CB0B2196B5
:10202000EBCF933021F422960E943B0BF8CF9430F3
:1020300011F02196F4CF229630E020E0AE014F5F00
:102040005F4F8053990B8A30910550F02150310930
:1020500030F38FE99FE00197F1F700C00000F6CF61
:10206000A29EB001A39E700D11249C01260F371F64
:102070008981EA01E3CFE22FF0E0EC57FF4FB49003
:10208000822F86958695869590E0FC01EC58FF4F4F
:10209000E4902770F12C022E02C0F594E7940A9484
:1020A000E2F731E0E322FF24FC01EC59FF4FC4903A
:1020B000D12C022E02C0D594C7940A94E2F731E0E5
:1020C000C322DD24FC01EC5AFF4F049110E002C052
:1020D000159507952A95E2F701701127E114F1048F
:1020E00019F081EE0E94CB0BC114D10419F086EED9
:1020F0000E94CB0B8B2D0E94710FC114D10419F0DB
:1021000086EE0E943B0BE114F10419F081EE0E946F
:102110003B0B0115110509F482CF8CE278CFCDB7C6
:10212000DEB7EAE00C9406290F931F93CF93DF9359
:1021300006E312E0C7EFD2E0CE010E944F29F8017A
:1021400081938F012196CB31F3E0DF07A9F7CAE92C
:10215000D5E0FE0185919491009711F0FC0109955D
:102160002C96F6E0CA32DF07A1F7DF91CF911F91DD
:102170000F9108950F931F93CF93DF93843030F521
:10218000663020F54F3010F5C42FD0E0CC0FDD1FA6
:102190002EE1629FC00DD11D112434EB839FC00D31
:1021A000D11D1124CE0187960E944F29082F10E0DF
:1021B000102F0027CE0188960E944F299801282BC6
:1021C000C901DF91CF911F910F91089590E080E0B8
:1021D000F8CF462F2091FA013091FB01232B99F47F
:1021E000703F39F4603F79F48091F8019091F901E2
:1021F0000895843040F4763030F46F3020F4672F47
:102200000E94BA10089590E080E00895CF92DF9286
:10221000FF920F931F93CF93DF936C0100912B03D9
:1022200080913401082BC7E0D0E010E0FC2EC801FB
:102230000C2E02C0959587950A94E2F780FD0CC09C
:102240002197A0F7F12C8F2DDF91CF911F910F9146
:10225000FF90DF90CF900895B6018C2F0E94E91077
:102260000E94B307019761F3EECFCF93DF93EC01A8
:102270000E940611BE010E94E9100E94B307DF917F
:10228000CF910895FC01808191810E9435110E94B7
:102290008B0A0895A5E0B0E0E0E5F1E10C94F128A7
:1022A00049835A8389819A81662399F0222389F090
:1022B0000E940611182F682F89819A810E94540A62
:1022C00069817A81812F0E94E9102596E3E00C94C0
:1022D0000D290E94200A182FF3CFFC01262F4081E0
:1022E00051816281738184810E944A11089583E241
:1022F00090E00E944F29893A89F484E290E00E949C
:102300004F298B3F59F485E290E00E944F2991E0DC
:10231000883709F090E0892F8170089580E0FCCF24
:10232000CF9384E090E00E944F29C82F82E290E092
:102330000E944F29982F8C2FCF910895DB01FC012B
:102340003296259134914217530758F0FC01349688
:1023500065917491A901CD010E942F2990E080E040
:1023600008958FEF9FEF08950F931F93CF93DF93FF
:1023700006E312E0C7EFD2E0CE010E944F29F80138
:1023800061918F01681719F0CE010E94632921968F
:10239000CB31F3E0DF0781F7DF91CF911F910F91F0
:1023A0000895DA019C012E5F3F4FF9014591549148
:1023B000F90125913491A217B30758F0FC01349626
:1023C000859194910E942F290E94B41190E080E0A1
:1023D00008958FEF9FEF0895CF93DF93CBE6D3E07F
:1023E00060E0CE010E9463292196C11584E0D807E0
:1023F000B9F7DF91CF9108951F93CF93DF93122FF9
:102400008430E0F46630D0F44F30C0F4C42FD0E014
:10241000CC0FDD1F9EE1699FC00DD11D112494EBEF
:10242000899FC00DD11D1124632FCE0187960E9474
:102430006329612FCE0188960E946329DF91CF9195
:102440001F910895CF93C82F6FEF811169EA83E23E
:1024500090E00E9463296FEFC1116BEF84E290E07E
:102460000E9463296FEFC11168E785E290E00E9446
:102470006329CF910895CF93C92F682F84E090E00E
:102480000E9463296C2F82E290E00E946329CF9121
:1024900008959091FD0192FB222720F9281769F0F9
:1024A00080FB92F99093FD018091FC019091FD01D8
:1024B0000E943B1282E00E94D10A08951092FE0110
:1024C000E6ECF0E086E0DF011D928A95E9F70E94D4
:1024D000A60A0895E6E3F2E0128E138E8FEA90E0EA
:1024E0009183808385E0848F28E833E133832283DE
:1024F00022E330E0378B268B28EC30E0318F208FC1
:10250000158E2AE030E0378F268F20E530E031A3AA
:1025100020A382A30E94B4110E945E121092FD01BA
:102520001092FC01EDEFF1E0808184608083809166
:10253000FC019091FD010E943B120E9494100895AD
:10254000AAE0B0E0E6EAF2E10C94E728A090F601F8
:10255000B090F70181E090E09093F7018093F6014D
:1025600088E2C82E84E0D82E00E0760110E015C085
:10257000F40125913491472D612F802F0E94FC1189
:1025800082E0880E911C73949FE07912F1CFEEE106
:10259000EE0EF11C1F5F163019F04701712CE8CFC9
:1025A0000F5FF4EBCF0ED11C0430F9F60E946A12D3
:1025B000CE0101967C018AE0F70111928A95E9F734
:1025C0008FEF9FEF9E838D8387E08A870BE113E077
:1025D0004AE050E0B801C7010E948629065F1F4FFC
:1025E0000B36F3E01F07A1F7B092F701A092F601B6
:1025F0002A96EDE00C94032980E00E94221260E00C
:1026000086E290E00E9463290E94A0120E94EC11D1
:1026100081E00E9422120895CF92DF92EF92FF9202
:102620008FEF9FEF4430510508F46AC0FB01C08072
:10263000D180E280F3800E945E128091FC01C0FA9A
:1026400080F9B701A601769567955795479540FBA8
:1026500081F9B701A60122E07695679557954795D0
:102660002A95D1F740FB82F9B701A60133E07695B0
:102670006795579547953A95D1F740FB83F9B70190
:10268000A601E4E07695679557954795EA95D1F7C9
:1026900040FB84F9B701A601F5E07695679557955B
:1026A0004795FA95D1F740FB85F9B701A601A6E059
:1026B0007695679557954795AA95D1F740FB86F98A
:1026C000B701A601B7E07695679557954795BA95F6
:1026D000D1F740FB87F98093FC018091FD01D0FA8E
:1026E00080F9D1FACC24C0F8C0FA81F98093FD01B9
:1026F0008091FC019091FD010E943B1290E080E0EE
:10270000FF90EF90DF90CF9008950E945E122FEF20
:1027100084E39CE0215080409040E1F700C000003D
:1027200080912103811102C0C49A0895C49808952C
:102730000E94851388E198E00FB6F894A89581BDB2
:102740000FBE91BDFFCFAAE0B0E0E9EAF3E10C943F
:10275000E8280EE711E08CE6C82E81E0D82E9BE138
:10276000E92E93E0F92E27E0922E3BE6A32E31E0EE
:10277000B32E88248394D6010D931D936D014AE0F6
:1027800050E0B701CE0101960E943F29F80138962A
:10279000DF01892D1D928A95E9F789819A81D801F7
:1027A00011969C938E938F8112968C9312978D81A4
:1027B00013968C931397888514968C931497898518
:1027C00015968C9315978B819C8117969C938E936D
:1027D000169718961C9218978A8587FF3CC01E96FC
:1027E0001C921E921D9780FF03C0D80118968C92F0
:1027F00081FF04C0F80190859260908782FF07C036
:10280000D80118969C911897946018969C9383FF12
:1028100004C0F80190859860908784FF07C0D801B4
:1028200018969C911897906118969C9385FF04C008
:10283000F801808580628087015F1F4FFAE0EF0E0C
:10284000F11C8BE6E81683E0F80609F094CF2A968F
:10285000ECE00C940429F801B686A586C4CFACE060
:10286000B0E0E5E3F4E10C94E6288E010F5F1F4F22
:102870008CE0F80111928A95E9F72CEAE22E20E02B
:10288000F22E680166246394712C41EC842E40E0A2
:10289000942EF70181917F018F3FF1F1E82FE295AE
:1028A000EF70F0E091A9282F2F70A30102C0440F10
:1028B000551F2A95E2F79A01942B91AB92A9209586
:1028C000292322AB00C0E2EBF0E041E050E0B12C64
:1028D000A12C91919F3F09F483C0A92FA295AF70BD
:1028E000B0E0D0962C9130E09F7002C035952795CE
:1028F0009A95E2F720FD74C09A01A22AB32A440FE8
:10290000551F8E169F0629F70E945B0750EA5A95BD
:10291000F1F7F601B182A082F2E0CF0ED11C42EBBA
:10292000E41640E0F40609F0B4CF4CE050E0B80102
:1029300088E391E00E942229FF24F394009709F490
:10294000F12C892B09F44FC08CE0F801A8E3B1E029
:1029500001900D928A95E1F781E0809337010E9402
:10296000E505909336018093350180913501909172
:1029700036010E94CA050597D0F1809138019091E7
:10298000390190935D0180935C0180913A019091AF
:102990003B0190935F0180935E0180913C01909197
:1029A0003D01909361018093600180913E0190917F
:1029B0003F01909363018093620180914001909167
:1029C000410190936501809364018091420190914F
:1029D000430190936701809366011092370107C00D
:1029E00030E020E08ACF809137018111BECF8F2D5A
:1029F0002C96EEE00C940229AB01BC0188E190E03A
:102A00000E9474290895E6E2F3E08081887F816066
:102A10008083818183708066818382818C7F8283C1
:102A20008CE0809370006091260370912703809161
:102A30002803909129030E94FC140895E6E2F3E034
:102A400080818E7F8083609126037091270380911F
:102A50002803909129030E94FC140895E6E2F3E014
:102A6000808181608083609126037091270380912B
:102A70002803909129030E94FC14089568EE7EEFCC
:102A800090E080E00E94802960E082E090E00E9477
:102A9000632960E083E090E00E9463291092340192
:102AA00060E084E090E00E94632964E082E290E0CC
:102AB0000E94632960E085E090E00E94632960E065
:102AC00086E090E00E9463296FEF87E090E00E942B
:102AD000632940E050E0BA0188E090E00E94742948
:102AE00060E08DE090E00E94632940E050E0BA0190
:102AF00088E190E00E94742960E087E190E00E9404
:102B0000632940E050E0BA018CE190E00E94742912
:102B100070E060E080E290E00E9480290E9403154E
:102B200080E00E9422120E94FC1240E050E0BA01B4
:102B30008FE090E00E94742940E050E0BA0183E108
:102B400090E00E9474290895A7E0B0E0EAEAF5E178
:102B50000C94E2287C01DC0113964D915C91149752
:102B600011966C9111978C910E940B0A8111E1C111
:102B700061E0C7010E946D118C01F70182818823F9
:102B800061F0F801E65EFC45ED30F10530F4E15608
:102B9000F64D0C94D5280E942E158091260380FFB7
:102BA0000CC086958370D70112969C91992309F4E5
:102BB00039C1823010F40E94F105F701528055208E
:102BC00011F40C94251EC80182519F45409710F0C6
:102BD0000C94031E8FEF93E00E944F29811199C13D
:102BE0007EEED72ED00E0BE613E0D1101FC1198256
:102BF0001A821B821C8299249A9468012FEFC21AB0
:102C0000D20AC8010E944F2989831A82882309F4B5
:102C100080C1813009F072C1580132E0A30EB11CAD
:102C2000C6010E944F29C82E8A83882309F471C1E6
:102C3000C5010E944F29D82E8FEF8C0D833008F0EC
:102C400003C1580143E0A40EB11CDB82DD2021F05A
:102C5000CE0101960E94F30F8501CFCF0E941E1571
:102C60009CCF8091260380FF0DC00E941E156091AD
:102C700026037091270380912803909129030E94D5
:102C8000FC148BCF0E942E15F2CF0E94031585CF26
:102C900090912603892F86958F5F8370880F997F87
:102CA000892B80932603982F9670963001F7897FA1
:102CB00080932603DCCF90912703892F8B7F92FF8F
:102CC000846080932703D3CF20912603322F36953B
:102CD0003695369590912703892F83708295880FBA
:102CE000807E832B8F5F382F330F330F330F277086
:102CF000232B209326038295869583709C7F892BB6
:102D0000E0CF20912603322F369536953695909157
:102D10002703892F83708295880F807E832B8150B3
:102D2000E2CF80912703982F96959695969580915E
:102D3000280383708295880F807E892B8436D8F48F
:102D400090E0019680937000382F330F330F330FCC
:102D5000209127032770232B20932703E5E09695E6
:102D60008795EA95E1F78370909128039C7F892BE2
:102D7000809328037CCF84E090E0E4CF8091270308
:102D8000982F9695969596958091280383708295B5
:102D9000880F807E892B853018F08150990BD2CF17
:102DA00084E690E0CFCF8091280382FF02C08B7F22
:102DB000DFCF8460DDCF80912803982F969596957C
:102DC0009695809129038295880F807E892B88377C
:102DD000A8F4865F282F220F220F220F909128033C
:102DE0009770922B90932803829586958770909187
:102DF0002903987F892B8093290339CF88E7EACF6D
:102E000080912803982F9695969596958091290301
:102E10008295880F807E892B843110F08A50DACF1A
:102E200084E1D8CF882309F4C8CEC5CE0115F4E0DB
:102E30001F0709F46EC0C8010E944F29811101C00B
:102E4000DA940F5F1F4FD1CE8BEF8C0D833080F55E
:102E5000C8010396DB825C01DD2009F4FDCE580138
:102E600054E0A50EB11C0E944F298C83882309F4DD
:102E7000F3CE0B811C8101308FEF180710F0102F5B
:102E8000002796E0C91681F0A7E0CA1649F0C801EC
:102E90000E946A2280915402909155020E94AF0EC6
:102EA000C8010E944522D8CEC8010E946A22D4CE11
:102EB000B4E0CB12D1CE5801E4E0AE0EB11CC80193
:102EC00003960E944F29DD2021F1882311F18150C2
:102ED000990B989E9001999E300D11244D2D4150D3
:102EE000550BCA01820F931F019708F4B5CEAFE9C5
:102EF000BFE01197F1F700C00000F6CFCE010196B8
:102F00000E94F30F5601A8CE81E00E94ED0A0E94B4
:102F1000B80A80913001877061F0D70112968C91C8
:102F2000882339F08091FD0182FF03C082E00E9476
:102F3000D10A2796E2E10C94FE2881E00E94C40A9F
:102F4000E6CF82E0E2CF82E0F9CF81E080936000BB
:102F5000E0CF80954822A6C6552009F428C61093D4
:102F6000CD000093CC000E94D90560932B02709392
:102F70002C0280932D0290932E0210923302109215
:102F8000320290C682FB882780F9CFC6552001F116
:102F90008170CBC60E943B0B54C70497813A9105C0
:102FA00058F46A2D84EC90E00E941206552009F432
:102FB000A3C50E947709ADCF0E9477098FE39CE9F2
:102FC0000197F1F700C000008A2D0E94CB0BEECFD5
:102FD0009D819F5F9D837EC6FC0120813181021708
:102FE000130709F082C5511082C51092310280E0AA
:102FF00007C680916F00816080936F00AAC58091A1
:103000006F008E7F80936F000E94BB09A2C58091E4
:103010006F008F7E013E110531F0053E1105C1F4B0
:1030200080916F008F7D80936F0080916F0080FF93
:103030009FC5F70182810832110528F50E3111056F
:1030400008F074C00430110580F581118DC590C55C
:10305000C80190568115A0E29A0720F0905E811574
:10306000904118F780916F0082FF82C580915302D2
:1030700081FD7EC521E531E040E0B60190E080E0D1
:103080000E94B90E75C50933110558F40D321105AA
:1030900018F40B321105C9F69091510292FDD5CF6B
:1030A00008C004361105C1F3D0CF9091510294FDB0
:1030B000CCCF882309F4A1C09091FE018091330107
:1030C000282F292B322F3D7FB1F11092220210922E
:1030D00021023091510231FD2EC0F80143E0F695F6
:1030E000E7954A95E1F7EE71FF27E150FE4F980111
:1030F0002F70332781E090E002C0880F991F2A9536
:10310000E2F78095909520813181822393239183EA
:10311000808360E0C8010E94780C809133018D7F2C
:103120000E943B0982E00E94D10AF3CE90915102A5
:1031300093FD8BCFBECF36E0F701A1E5B1E0019062
:103140000D923A95E1F710925301109255011092A9
:103150005401A0902102B09022020A151B05B1F57E
:103160003091510235FF32C040916F0041FB9924EC
:1031700090F841FF02C036FF29C040911F025091D4
:103180002002B601641B750B40914E0250914F0214
:1031900064177507D8F491FF08C080916F008061B3
:1031A00080936F0082E00E944F098091FE0185FFAD
:1031B00008C080916F00806280936F0080E20E945F
:1031C0004F09692DC5010E94780CA3CE90916F0024
:1031D00021FB91F990936F008D7F0E943B09109322
:1031E000220200932102D0922002C0921F028091FD
:1031F0006F00846080936F0095CF970140E0B60127
:10320000C8010E94B90E85CE053F8CE5180709F468
:1032100062C008F45AC0063FACE51A0709F461C061
:10322000F7013281332309F4B3C510925C020330F5
:10323000FDE51F0708F061C00A3F2CE5120730F4D6
:10324000C80182509C45449708F061C00E949011CB
:103250009093FD018093FC0101318CE5180709F47E
:1032600079C108F0F3C00930ACE51A0709F464C16C
:1032700008F0BBC00530ECE51E0709F451C108F0A9
:10328000A6C003302CE5120709F440C108F044C180
:103290008091FC01816002304CE5140709F439C1CA
:1032A0008091FC019091FD010E943B120E945E12F0
:1032B00030CE07E225EE45EE68ED7CE574C406E20B
:1032C00021EE40EE63EF7CE56EC407E225EE44EEAE
:1032D00064EF7CE568C406E221EE42EE65EF7CE532
:1032E00062C407E225EE46EE66EF7CE55CC408E2C8
:1032F00021E045EE69ED7CE556C401364DE5140745
:1033000009F4A4CF053A5DE5150709F49FCF06310E
:103310005CE5150709F441C50A35BDE51B0709F44D
:103320006AC108F04BC10115FCE51F0709F451C142
:103330000E3D1C4509F452C1F701828100811181C3
:10334000882309F45CC1C8010E940611D82E682F99
:10335000C8010E94540AB8018D2D0E94E9100E94F4
:10336000B3078C01882ED7011296CC901297159630
:10337000DC90D2943FE0D322809130018770C1F07D
:10338000AC2CCC20B1F0812F807F803421F080E202
:10339000800F883068F08091FD0182FF09C082E0D3
:1033A0000E94D10A809130018770AA24A3948111D0
:1033B000A12C912E92942FE09222BBE0B91508F433
:1033C000A1C1E92DF0E0E455F64D0C94D52880918B
:1033D000FC01806207305CE5150709F49AC008F427
:1033E000A7C08091FC01806494C08091FC018B7F18
:1033F0000D309CE5190709F48CC0A0F48091FC0104
:103400008E7F0B30BCE51B0709F483C08091FC0163
:103410008C600C30ECE51E0708F47BC08091FC0149
:103420008D7F77C08091FC018F7E0F30FCE51F07F8
:1034300009F46FC08091FC01877F00312CE51207F1
:1034400008F467C08091FC018F7D63C00D3F3CE5AF
:10345000130709F47BC058F505315CE5150709F43D
:1034600083C098F48091FC01837F03319CE51907A8
:1034700009F44FC008F472C00E945E129091FC01E2
:10348000892F97FB87F9805844C00B3FBCE51B0789
:1034900009F44AC008F056C08091FD0181600A3FDE
:1034A000FCE51F0709F0FCCE8093FD01F9CE013049
:1034B0002DE5120709F464C0C0F48091FD018C7FF2
:1034C0000F3F4CE5140781F38091FD0183600115E6
:1034D0005DE5150748F38091FD01982F9095917057
:1034E0008E7F892B90FB81F9DFCF01368DE51807A0
:1034F00009F44CC0053A9DE5190709F44EC00230A5
:10350000ADE51A0709F0CCCE60E03BC08091FC012C
:1035100082608093FC01C4CE8091FC018460F9CF6D
:103520008091FC018860F5CF8091FD018260BCCF65
:103530008091FC018061EDCF0E945E128091FC01C0
:103540008068E7CF8091FD018E7FAECF8091FD0135
:103550008D7FAACF8091FC018F7BDBCF0E945E1212
:103560008091FC018F77D5CF8091FC0182FB992758
:1035700090F921E0922790FB82F990FB83F9C9CF63
:1035800061E08EE090E00E9463298ACE9091FC0178
:10359000892F8F7E94FF8061BCCF9091FC01892F91
:1035A0008E7F90FF8160B5CF8091CE00811104C0E5
:1035B00089E20E94DE09FDCC85E3FBCF0C353DE5B9
:1035C000130779F0D0F0073A1D4509F0B5CE0E94F7
:1035D00098130E9485130E94B7059BCC0E943E154C
:1035E000F6CF8091FD0182FB882780F991E0892741
:1035F0000E944912A1CE81E0FBCF80E0F9CFC80143
:103600000E94200AD82EA7CEE12FEF70BE2E812F68
:10361000807F19F0B29490EFB922CC20B9F0BB2092
:1036200069F080E2800F883010F0811009C080912D
:10363000FE01B82AB092FE010E947709802F60C077
:1036400080912A03B82AB0922A03F6CF802F0E94D5
:103650003B0BBB2009F456C080E2800F883010F08D
:10366000811004C08B2D0E944F0906C0B094809138
:103670002A03B822B0922A030E94770943C0F12F8F
:10368000FF70BF2E812F807F803219F0B29480EFBF
:10369000B822882029F121E0821609F4AFC0CC209D
:1036A00009F4B8C0DD2009F480C020E0D7014C91B6
:1036B00011965C91119712966C91129713967C91CA
:1036C000139714968C910E944A118091530281FDA8
:1036D000B5CFF701858180FFB1CF8F70858365C03D
:1036E0008091FD0182FD41C0CC20C9F1BB2039F0A1
:1036F0008091FE01B82AB092FE010E94770980E015
:103700000E94CB0B292D2850330B2430310510F4A7
:103710000E945806C8010E948B0A8111C0C11092F4
:10372000D1001092D000AA20A9F08091300180FD34
:1037300011C0F70112828595859585950E94ED0A45
:10374000C7010E94A41580913001859585958595C6
:103750000E94C40A60E0C7010E946D11EACB80E0BC
:103760000E943B0BBB2071F27DCFCC2011F1D11018
:1037700004C0809133018B2919C031E0D31206C0F7
:10378000809133018B290E943B09BCCF809152026A
:10379000823078F3D812EDCF0E9430099091CF009B
:1037A0008B2D892B89138093CF008B2D0E94310B99
:1037B000A9CFD11003C00E94300917C080915202D6
:1037C00041E0D41216C0823008F49CCF8091FE01F3
:1037D0008B2109F497CF0E9430099091CF008B2D57
:1037E0008095892389138093CF008B2D0E942A0B0B
:1037F00089CF823000F3D812DECF84CF8091580277
:10380000CC2021F08D1508F47DCFCFCFD81608F04D
:1038100079CFEBCFDD2049F3F9E38F1238C18091E6
:103820005602909157020E94AF0E802F0E943B0BD0
:1038300069CF812F86958695837061F0813009F07C
:1038400061CFC8019370C11002C090E080E00E9477
:103850002C0658CFC8019370C11002C090E080E0E0
:103860000E9442064FCF812F837091F5C1104ACF3D
:10387000402F429546954770440F440F802F8F701C
:10388000042E01C0880F0A94EAF7202F207104FF4C
:1038900007C02FE030E001C0220F4A95EAF72095DB
:1038A000312F369536953370323069F050F44091AF
:1038B0003401313029F0822B84230E94100B22CF57
:1038C000842B822BFACF282B809134018227F5CFCD
:1038D0008695CC2011F0812F8170882309F412CFB6
:1038E000402F429546954770440F440F802F8F70AC
:1038F000042E01C0880F0A94EAF7202F207104FFDC
:1039000007C02FE030E001C0220F4A95EAF720956A
:10391000312F369536953370323069F050F440913E
:103920002B03313029F0822B84230E94B30AEACE84
:10393000842B822BFACF282B80912B038227F5CF63
:10394000212F2F70B22ECC2029F0822F0E94ED0A59
:10395000802F2CCF802F0E942A0B8B2D0E94C40A0F
:10396000D1CE802F32EF8316B1F1381570F040EFD1
:103970008416D1F051EF851691F0CC2009F482C065
:10398000D1105CCE812F8F712AC093EF891651F12F
:10399000A4EF8A12F2CF8091FD0182FD2FC0812F0A
:1039A0008F71CC20D9F21BC080915802CC2079F0C5
:1039B000D81608F0A7CE212F2F7181E090E001C02A
:1039C000880F2A95EAF790912B038927AECF8D15A2
:1039D00008F498CEF0CF812F8F71C110BFCF0E9415
:1039E000ED0A90CE80E0CC2009F49FCF81E0912FAA
:1039F0009F7101C0880F9A95EAF797CF8091520284
:103A0000823040F1CC20D1F0909130019770943009
:103A100041F40E945609812F8F710E94C40AA12C83
:103A200071CED816E0F7B12FBF71BB2E8B2F0E943D
:103A3000ED0A63E08B2D0E94F90AF1CFD81630F021
:103A40000E94560964E0812F8F71F5CF81E00E94BA
:103A5000D10AE5CFCC2059F0E12FEF71BE2E8E2F89
:103A60000E94ED0A63E08B2D0E94F90A4BCE81E0A3
:103A70000E94D10AF1E0FD1508F044CE82E00E94D8
:103A8000D10A40CEDD2041F0893309F4C8CE8091BF
:103A9000540290915502C7CE812F8F715FCFCC20F9
:103AA00019F0D1103CCE3FCED11039CE20E0D70155
:103AB0004C9111965C91119712966C9112971396F6
:103AC0007C91139714968C910E944A118091530215
:103AD00083FF25CE8091D0009091D100029709F00C
:103AE0001ECE802F0E94710F1ACE552029F0DC01C6
:103AF00018968C9185FF7BCA8091510280FF38C057
:103B00000E94E5056C01F7018281882309F47FCAD0
:103B100080916F0082FF08C021E531E040E0B601EE
:103B200090E080E00E94B90E0B31FCE51F0709F41C
:103B300060CA0C312CE5120709F461CA90916F003C
:103B4000892F8E7F90FF81600A313CE5130709F4CD
:103B500059CAC8019056811540E2940728F0905E3A
:103B60008115904108F061CA109222021092210240
:103B7000033FFCE51F0709F4A2CB08F045CB083D45
:103B80003CE5130709F495CB093D4CE5140709F40E
:103B9000AECB073D5CE5150709F042CB06E221EE0E
:103BA00041EE67ED7CE5C7010E94930FB2C9809199
:103BB000CC009091CD000817190781F41092CD0028
:103BC0001092CC0010922B0210922C0210922D0217
:103BD00010922E021092330210923202809134021F
:103BE00090913502009709F487CFA8E08A169104D6
:103BF00008F0F2C9642D0E94B60681117DCF81E0E4
:103C00000E94650B79CF0031BFE51B0709F47CC921
:103C10000131EFE51E0709F494C90F35EDE51E07E4
:103C200009F493C90036FDE51F0749F00E352DE56F
:103C30001207A9F480916000882309F486C91092C4
:103C4000600080E00E94650B64C90031FFE51F073A
:103C500009F473C901312FE5120709F474C9809181
:103C60006000882309F448CF480130EE831A910898
:103C7000409033018091CF00482A8091FE01482A6C
:103C800048E08416910408F067C99801277033272B
:103C900081E090E001C0880F2A95EAF7552009F4E9
:103CA00058C9482AD7018D919C910E94200A21E091
:103CB00030E0190102C0220C331C8A95E2F7E09132
:103CC0003402F0913502FF83EE836090CC00709057
:103CD000CD001D822D81E22FF0E0EE0FFF1FE45991
:103CE000FE4FC080D180C114D10409F477CF4110B8
:103CF00005C0D60112968C9181116AC9F6018381A3
:103D000090E082219321892B09F462C98085982F44
:103D1000977009F487E0F8E08F16910408F036C92F
:103D2000552009F42FC986958170882309F450C95C
:103D3000D601AD90BC900A151B0519F4552009F465
:103D400047C9EE81FF81CE16DF0609F441C9D601CD
:103D50001D96ED91FC91309721F08081882309F424
:103D600037C9642DC6010E94B606882309F430C9FC
:103D70000A151B0509F03FC00115110509F440C0E3
:103D8000511040C0A614B70409F022C9512C3AC002
:103D900006314CE5140709F0CFCA8091FE01982F37
:103DA0009A7A2091500220FF04C0482F447409F0F1
:103DB00090E021FF04C0482F417109F090E022FFFC
:103DC00004C0482F487809F090E023FF03C08272B6
:103DD00009F090E0332309F4E7CB81E0911101C0B1
:103DE00080E08093CE0069E2911165E384EC90E07D
:103DF0000E941206DEC8A114B10409F0C3CF512CF1
:103E0000B12CA12C80E00E94650BD0923502C092AB
:103E1000340281E080933102D60115968C91809313
:103E20002F0251100EC0AB2861F0F6018081918104
:103E30009C0124503109213A310508F0ABC80E9499
:103E4000DE09D6011696AD90BC90C5019A958115F4
:103E50009F4110F4E0EEBE2277247394C5010197D0
:103E60008C3A9D4508F0712CD6011996ED91FC9184
:103E70001A97309731F01B966D917C9181E00995EE
:103E80007822772079F0F601868197810E94170CBD
:103E900080933002C501F8E08F16910408F07DC8C8
:103EA0000E9465060E94770981C8B0E0A0E0EBE5BA
:103EB000FFE10C94EB288091FB00807F09F052C059
:103EC0008091F800882309F44DC0C0912D0186E04F
:103ED000B82E8091FC008C1709F444C0F090F600D5
:103EE000E090F700C090F900D090FA00A6016E2D86
:103EF0008F2D0E940B0AD0E0811139C0BC9E800139
:103F0000BD9E100D1124F801E350FF4F81818E11E9
:103F10002EC080818F112BC08281811128C0E38047
:103F2000F480EC18FD0860E086EF90E00E946D11CF
:103F300080914E0290914F02E816F906C0F48091EC
:103F4000FB008F7080618093FB00F801EE5FFE4FF5
:103F500080818F708061808386EF90E00E94A4153D
:103F60000E94160ACDB7DEB7E9E00C940729219626
:103F7000C770AFCFA1E1B0E0E0ECFFE10C94E32823
:103F80008C0185E0F801DE011D9601900D928A9565
:103F9000E1F7D8014C9011965C9011971296EC9035
:103FA00012971396CD90DC9060E086EF90E00E942F
:103FB0006D1186EFA82E80E0B82E8090F9009090C9
:103FC000FA00A4016091F7008091F6000E940B0AAC
:103FD000811183C1F090F800F601E819F9094F0149
:103FE00060E0FF2009F42FC1C5010E946D116090AF
:103FF0004E0270904F023090FB008614970408F038
:10400000E4C04091F9005091FA00B090F600A09001
:10401000F700832D807F6A2D09F08FC08B2D0E94C1
:104020000B0AFE2C81111DC0D80111968C9111979D
:104030008A1117C08C918B1114C0E11012C0832D0E
:104040008F7080618093FB0086EF90E00E94A41542
:104050008091FB00F80185838F2D6196E1E10C943E
:10406000FF28F4EF6F16F1E07F0620F480915302F1
:1040700080FF21C0A601652D842D0E940B0A8111AD
:1040800018C081E08E2580FF16C04E2D652D842D31
:104090000E94EB09882379F086EF90E00E94A41536
:1040A00086E0E6EFF0E0DF011D928A95E9F7F12C5A
:1040B000D3CF80E0E8CFA601652D842D0E940B0AA6
:1040C000811124C081E08E25B82FB170CB2E80FFE6
:1040D0002BC04E2D652D842D0E94EB09D82E811109
:1040E00023C04D865E868D859E850E943511292FC1
:1040F00022952F70223060F0243088F49F7061F098
:10410000F8019581907F41F4FD2CA6CF80E0DCCFB3
:104110009F7011F08823C1F3805E8830A8F3C80136
:104120000E94A415DC2CF0CFEE2009F495CF8091ED
:10413000FB0081608093FB00BACF8B2D0E940B0A9D
:10414000811119C0D80111968C9111978A1113C051
:104150008C918B1110C0E1100EC015963C92C801D5
:104160000E94A41586E0F801A6EFB0E001900D9240
:104170008A95E1F771CFC8010E944211882309F1A5
:10418000EE20F9F08091FB00803270F02091F60073
:104190003091F70038872F831986DB86CA868C8793
:1041A000CE0107960E94A41586E0F801A6EFB0E0C4
:1041B00001900D928A95E1F70E94551FFF24F39418
:1041C0004BCFC8010E94A415F9CF832D807F09F43D
:1041D00063CF9090F6008090F7004091F9005091E5
:1041E000FA00682D892D0E940B0A811113C0F80175
:1041F000818188110FC0808189110CC0E1100AC033
:104200003582C8010E94A41586E0D5011D928A95C9
:10421000E9F722CFC8010E944211882391F2EE20D3
:1042200081F28091FB00803208F4BECF2091F6002D
:104230003091F7003A8329831B82DD82CC828E8302
:10424000CE010196AFCF86EF90E00E946D11809174
:104250004E0290914F0288169906B0F6FE2CEE2081
:1042600009F4AFCFE090F600D090F7004091F9004C
:104270005091FA006D2D8E2D0E940B0A81111FC0E6
:10428000F80181818D111BC080818E1118C0809131
:10429000530282FD67CF9091FB0090FD63CF907F2A
:1042A00009F460CF8091FB008583903F09F457CFDC
:1042B000982F907F905F8F70892B858350CFC80196
:1042C0000E944211811170CF8091FB008160809328
:1042D000FB00C8010E94A415BFCEEE2009F471CFE7
:1042E000C8010E944211F82E882309F46ACF86E0A3
:1042F000F801A6EFB0E001900D928A95E1F7809168
:10430000F6009091F7000E9435110E94551FA4CE2F
:10431000A7E1B0E0EEE8F1E20C94F128942F4B8B8A
:10432000252F5C8B6D8B7E8B8F8B4E895F89622FE7
:10433000892F0E940B0A811109C08091D0009091B1
:10434000D10001969093D1008093D0008D89811186
:1043500010922A031A8A198A85E0FE017396DE01FB
:104360001D9601900D928A95E1F78091FD0182FFE3
:104370001EC08091380290913902892BC1F00E94B1
:10438000E50520912E0130912F01821B930B209186
:104390003802309139028217930720F08091300162
:1043A00082FF6FC00E945D0981110E94300986E082
:1043B000FE013D96DE01179601900D928A95E1F778
:1043C000CE0107960E94BA1F811111C086E0FE013E
:1043D0003796DE01119601900D928A95E1F74A8594
:1043E0005B8568858F810E940B0A882359F016E04F
:1043F00080912D019091FC00891331C06796E3E014
:104400000C940D292091FC0030E0C90101968770C1
:10441000992740912D014817190699F096E0929F2F
:10442000D001939FB00D1124A350BF4FFE013196D0
:1044300001900D929A95E1F78093FC000E94160A74
:10444000D6CF0E945E121092FC0010922D0186E0E1
:10445000E6EFF0E0DF011D928A95E9F7C8CF819F72
:10446000C001112483509F4F0E94BA1F882331F24C
:1044700080912D0190E001968770992780932D01FE
:10448000B7CF82E00E94D10A8DCFA5E0B0E0EBE487
:10449000F2E20C94F2289093F9018093F8018115CF
:1044A00020E2920730F40E94480C2596E2E00C943A
:1044B0000E2980EF89838A831B820E94E505816033
:1044C000782F9D838C8349815A816B818D810E94D5
:1044D0008821EBCFA5E0B0E0E0E7F2E20C94F2280F
:1044E0009093F9018093F801811520E2920730F44E
:1044F0000E94600C2596E2E00C940E2980EF8983DF
:104500008A8381E08B830E94E5058160782F9D83FB
:104510008C8349815A816B818D810E948821EACFE9
:1045200090E080E00E945D29883E9E4F19F40E9431
:104530007711089580E0089578941F921FB61F9216
:1045400011248F939F93AF93BF93809163029091B7
:104550006402A0916502B09166020196A11DB11D91
:104560008093630290936402A0936502B093660205
:10457000BF91AF919F918F911F901FBE1F90189573
:10458000CDB7DEB768970FB6F894DEBF0FBECDBFCC
:1045900084B7806884BF84B7806884BF0E94E505C3
:1045A00090936A018093690189E597E09093C30035
:1045B0008093C2000E94A3130E94941085B7886064
:1045C00085BF8BB780688BBF8BE480933803809363
:1045D0006D03809344038AE58093370380936C03D3
:1045E000809343038B9A80E0815009F0B4C08B988C
:1045F00078948BE083BF8AEF8CBF82E089BF0E94F2
:104600007711811102C00E94FC120CEA10E062EBEB
:10461000E62E60E0F62EF80181918F018F3F11F0B8
:104620000E945B07E016F106B1F702EB10E051ECD7
:10463000E52E50E0F52ED8018D918D018F3F11F0C0
:104640000E945B07E016F106B1F78CE0ECE5F1E0C3
:10465000DF01282F1D922A95E9F7E8E3F1E0DF0159
:104660001D928A95E9F70E949022811102C00E9452
:104670003E1582E090E00E944F29809344010E9401
:1046800090119093FD018093FC010E942F14EFE3A1
:10469000FCE93197F1F700C000000E942F148091CF
:1046A0005C0181FF08C06FEF7FEF90E080E00E9427
:1046B00080290E94B70583E090E00E944F290E9464
:1046C000100B0E949022811102C00E943E1588E1C9
:1046D00090E00E94572960932603709327038093EC
:1046E0002803909329032091270326952695269544
:1046F0003091280333703295330F307E232B209373
:104700007000672B682B692B11F0211102C00E94E9
:10471000031581E080932103C498BC9A0E94F1059F
:1047200081E690E09093600280935F02AFEFB0E784
:10473000E2E0A150B040E040E1F700C000008AE0B4
:10474000282E9E012F5F3F4F290133243A9492E394
:10475000892E912C20C0A895AFE9BFE01197F1F701
:1047600000C0000041CF111132C0809169019091C9
:104770006A010E94CA05069708F413C481E0809379
:10478000680125C081919191892B09F0B7C321E07F
:10479000E836F207B9F78091520310916801882337
:1047A00011F3109252030E94E50590936A018093E1
:1047B0006901112309F4F5C3109268010E945E1289
:1047C0000E94580680916801882309F4EAC30E9478
:1047D0002F14ECE5F1E0D6CF7F5FEE0CFF1C7F30AD
:1047E00009F004C40F5F1F4F0630110509F0EFC335
:1047F000388A398A1A8A0E94E5058160782F9C8B55
:104800008B8B488959896A898C890E94882115C4B3
:10481000C4986DC42091270322FF6DC49091240396
:1048200082FD0BC0911167C481E0809324038091C5
:104830002103882359F0C49A5EC4992309F45BC408
:1048400010922403809121038823A9F3C49853C4B0
:104850008C3009F4E2C058F5843009F4BBC058F438
:10486000823009F46FC008F0A1C0813009F464C03F
:10487000309201037DC0863009F4CCC008F4BAC080
:104880008B30B1F78091F6019091F701892B09F4F3
:104890006FC00E94000EEFEFF1EE24E0E150F04017
:1048A0002040E1F700C000000E94B70561C08031E0
:1048B00009F4E9C0A8F58E3009F4B7C008F4B1C016
:1048C0008091F6019091F701892B09F451C0E09095
:1048D0000403F12C3DE1E316F10408F049C0009116
:1048E00002031091030310270127102771E0C72E40
:1048F00073E0D72EE00EF11EC80185599C4F0E15AE
:104900001F05B1F10539110528F4D60114966C91F3
:104910000E946329BFEFCB1ADB0A0F5F1F4FECCF5A
:10492000823109F4B5C008F4B1C0833109F4DEC0A6
:104930008E3F09F09DCF2FC41092020389E080932F
:10494000030316C080910203823009F41FC3833031
:10495000A1F0813009F08CCF0E94D9050E94DB289C
:1049600060930303709304038093050390930603FD
:104970000E94000E1092EF020ECF8091F6019091EE
:10498000F701892BA9F3ECE5F1E0A1E0B3E0808128
:104990009181329612969C93129713968C9313974B
:1049A000129631E0E836F30791F7E2CF80910203E7
:1049B000823009F05DCF6091030370910403809110
:1049C0000503909106030E94DB2886E290E00E9496
:1049D0006329CECF409104036091030380910203C9
:1049E0000E94BA10982789279827909306038093EE
:1049F0000503BECF209105033091060332272327FC
:104A000032274091040360910303809102030E94C6
:104A1000FC11AECF0E94A012ABCF80E180930203C5
:104A2000A7CF1092020385E98ACF0091040310E01A
:104A30000D31110508F09CCFE0900203F0900303C4
:104A4000FE24EF24FE24E1E0CE2EE3E0DE2E0F5F15
:104A50001C4FC70185599C4F0C151D0509F488CFC3
:104A600045E9E416F10460F40E944F29D60114963A
:104A70008C93FFEFEF1AFF0A2FEFC21AD20AE9CF89
:104A8000F6011482F6CF0E94EC1172CF84E0C6CFFB
:104A90000091040310E00D31110508F069CFE0909A
:104AA0000203F0900303FE24EF24FE2461E0C62EEF
:104AB00063E0D62E0F5F1C4FC7018796C016D10644
:104AC00009F456CFE0EDEE16E2E0FE0660F40E9437
:104AD0004F29D60114968C93FFEFEF1AFF0A2FEFA0
:104AE000C21AD20AE9CFF6011482F6CFE09004038D
:104AF000F12C3DE1E316F10408F03ACF00910203F6
:104B000010910303102701271027003D42E01407EE
:104B100008F02ECF80ED92E0801B910B8E159F0543
:104B200008F426CFC8018796988F8F8B8091F60165
:104B30009091F7013701600E711E892BA1F5680174
:104B400091E0C922DD2400FF0EC0C80186960E94B4
:104B50004F299091050389279827892781159C451E
:104B600011F430920503570160FE17C0B1E0AB1A93
:104B7000B108F501EB5FFC4FFE8BED8B8F89988DB3
:104B80008E0D9F1D0E944F29AD89BE899C91811574
:104B90009C4519F4ED89FE893082F601EF5FFC4FE8
:104BA000CA14DB0428F051E0E52E53E0F52E1AC0BC
:104BB0009481858181159C4511F43482358232E0DF
:104BC000C30ED11C3296ECCF003D42E0140728F40E
:104BD000D70114966C910E946329BFEFEB1AFB0A70
:104BE0000F5F1F4FC80187966016710669F7C0CE28
:104BF00088E0E3E7F0E0D20101900D928A95E1F7B9
:104C0000A1E0B3E0E0E21D92EA95E9F785E0809348
:104C1000010388E0F201A5E0B3E001900D928A95CE
:104C2000E1F7A6CE84E28093010383E08093020340
:104C300010920303109204039BCE80910403682F0B
:104C400070E0762F662780910303860F972F911DC2
:104C5000092E000CAA0BBB0B45E0880F991FAA1F59
:104C6000BB1F4A95D1F7AC01BD01405E5F4F6F4F4E
:104C70007F4F481759076A077B0708F479CE8432BB
:104C8000F3E09F07A105B10508F072CE453223E09D
:104C900052076105710520F044E253E060E070E0E6
:104CA000481B590BBC016C5F7E4F81E093E00E9472
:104CB00019295ECE4AE150E06FEF70E087E093E0A3
:104CC0000E9438298091F60180930103009302032A
:104CD000109203031092040383E0809305038EE097
:104CE0008093060345CE81E090E09093FB01809392
:104CF000FA0190925B0180925A010E94E50590931F
:104D000059018093580134CE012B89F1F0905C0158
:104D100000916201109163018091580190915901B5
:104D20000E94CA058536910568F116FB002700F937
:104D3000002341F1F0FE26C00E94E5059093590141
:104D40008093580180915A0190915B010197909353
:104D50005B0180935A01892B51F41092FB01109250
:104D6000FA01A1E0B0E0B093F701A093F6018091C1
:104D7000F601809301038091FA01809302038091F0
:104D80005A01DDCD90925B0180925A01F0CF1092D2
:104D9000F7011092F601ECCD00910303109104038A
:104DA00040E250E06FEF70E081E093E00E9438292C
:104DB00020E935E090E080E0AC014E5F5F4F41328A
:104DC000510508F0D5CDF9016591749106171707C3
:104DD00030F48F5F9C4FFC0171836083CA01245FB4
:104DE0003F4FF6E020323F0739F7C2CD2091030351
:104DF0003091040380E995E0FC01459154914217FC
:104E0000530709F495C00C9646E080329407A1F749
:104E10008FEF9CC0809103039091040300E915E09B
:104E2000F801259134918217930709F492C0045F29
:104E30001F4F20E236E02017310791F7EE24EA9465
:104E4000FE2CA1C00E946A1293CD8091030385308D
:104E500061F0863031F181118BCDA1E0B3E0E0E269
:104E60001D92EA95E9F788E06ACD60910403D201CA
:104E7000E22D1D92EA95E9F78FEF683058F4629DB4
:104E8000B0011124655E7C4F4AE050E0C2010E94EF
:104E90003F2980E0809301038AE0F201A2E0B3E0C1
:104EA000BCCE609104038AE0E5E0F3E0D20101901A
:104EB0000D928A95E1F78B819C818115FCE59F0716
:104EC00041F42091F6013091F701232B11F490E089
:104ED00080E09C838B838FEF683058F4629DB00133
:104EE0001124655E7C4F4AE050E0C2010E94862991
:104EF00080E0809301030E94A3133ACDF89421B37C
:104F0000939A822F8C6081BB92B33CE0932792BB33
:104F10004FE788E391E0415080409040E1F700C0C6
:104F2000000082B3832782BB21BB9398789433CC53
:104F3000FC013696259134912115310509F468CF8D
:104F40004FE150E062E073E0F901099580930103BD
:104F50000FCDF8013896259134912115310509F4CA
:104F60006DCF4CE150E065E073E0C801F9010995AF
:104F70007C01892B41F4F8013A9685919491009730
:104F800011F0FC010995E0920103F2CC86E290E079
:104F90000E944F29109203031092040310920503FC
:104FA0009FCE0E948D0C8091F902882309F4CCC019
:104FB0008091370384FFC8C00E942F1481110E9482
:104FC000D905ACE5B1E0E5E4F1E010E000E0602FE8
:104FD0008D919D91219131912817390709F402CCC7
:104FE0002827392770E0EE24E394F12CA9014E2103
:104FF0005F21452B09F4F0CB7B876C879C012E2128
:105000003F2191E0232B09F490E09D870E94E50564
:105010008160782F9F878E874B855C856D858F8516
:105020000E948821000F111FF801EB5BFE4F808169
:105030009181E826F926F182E082809132029091F6
:105040003302892B09F43EC0409127025091280277
:105050006091290270912A022FB7F894809163021F
:1050600090916402A0916502B09166022FBF841BEB
:10507000950BA60BB70B409123025091240260912F
:1050800025027091260284179507A607B707D0F06E
:1050900080913202909133020E94600C1092330290
:1050A00010923202109227021092280210922902C6
:1050B00010922A02109223021092240210922502CA
:1050C00010922602809125038823A9F08091220363
:1050D000909123030E94CA05209170002817190699
:1050E00008F098CB80912103811192CBC49A109241
:1050F0002503109224038091510280FF1EC08091ED
:105100006F0082FF1AC00E94E50520911F023091B6
:105110002002AC01421B530B20916D0030916E00B8
:105120004217530750F021E531E041E0BC01809186
:105130002102909122020E94B90E0E94580690917D
:1051400057018913809357010E94540E0E948D0CC1
:105150008091F902882309F41ECB8091430384FFD8
:105160001ACB8091EF02803209F015CB0091FA0141
:105170001091FB01809101030115110509F468CB21
:105180008E3F09F0F5CB80910203833020F08550EB
:10519000833008F0EDCBE0910203EE3008F0E8CB6D
:1051A000F0E0E854F64D0C94D528EE0FFF1F059063
:1051B000F491E02D09946927962769277827872796
:1051C000782708952F923F924F925F926F927F922D
:1051D0008F929F92AF92BF92CF92DF92EF92FF9207
:1051E0000F931F93CF93DF93CDB7DEB7CA1BDB0BB3
:1051F0000FB6F894DEBF0FBECDBF09942A88398858
:1052000048885F846E847D848C849B84AA84B9845E
:10521000C884DF80EE80FD800C811B81AA81B9816A
:10522000CE0FD11D0FB6F894DEBF0FBECDBFED017E
:105230000895FB01DC0102C005900D9241505040E1
:10524000D8F70895FB01DC0104C08D91019080190D
:1052500021F441505040C8F7881B990B0895FB0179
:10526000DC0102C001900D9241505040D8F70895E2
:10527000DC0101C06D9341505040E0F70895DC011E
:10528000CB01FC01E199FECF06C0FFBBEEBBE09A6B
:1052900031960DB20D9241505040B8F70895E19902
:1052A000FECF9FBB8EBBE09A99278DB30895A6E1F0
:1052B000B0E044E050E00C944129A8E1B0E042E0C5
:1052C00050E00C944129262FE199FECF9FBB8EBB65
:1052D000E09A01970DB2021631F02DBB0FB6F8948B
:1052E000E29AE19A0FBE08950396272F0E9464293F
:1052F0000E946329252F0E946429242F0C9464297D
:105300000196272F0E9464290C946329DC01CB01AC
:1053100003C02D910E94912941505040D0F708952B
:10532000262FE199FECF9FBB8EBB2DBB0FB6F89405
:10533000E29AE19A0FBE01960895F894FFCFCB153B
:105340002E163116451648165B1664168116D316AE
:10535000DB1600179116BE16041B041B3F1B3F1BD8
:10536000191C821B821B821B331CA01CB11CB11C8C
:10537000F82512261D26B824B8245A26732684261A
:0C538000C726CC26F6260A272227252760
:10538C0001B405830EB3054F0E4A0EB205AF0001F2
:10539C000CFF5A3FB8938073A1B69C818283E200C4
:1053AC00E900EA00B500B600B700CD008301CC00DF
:1053BC008A01920194012102230224022502260271
:1053CC0027022A02B300B4006F0070003233343568
:1053DC0036370001050607303197969594939291D4
:0253EC0090002F
:00000001FF
